:020000040800F2
:100000001805002049010008C51A000899180008C1
:10001000A91A000859020008BD1F000800000000CE
:10002000000000000000000000000000AD1C0008FF
:100030007502000800000000DD1A0008C51C000859
:100040006301000863010008630100086301000800
:1000500063010008630100086301000863010008F0
:1000600063010008630100086301000863010008E0
:1000700063010008630100086301000863010008D0
:1000800063010008630100086301000863010008C0
:1000900063010008630100086301000863010008B0
:1000A00063010008630100086301000863010008A0
:1000B0006301000863010008630100086301000890
:1000C0006301000863010008630100086301000880
:1000D00063010008B11F0008630100086301000804
:1000E0006301000863010008630100086301000860
:1000F0006301000863010008630100086301000850
:10010000630100086301000863010008630100083F
:10011000630100086301000863010008630100082F
:10012000630100086301000863010008630100081F
:10013000DFF810D000F06EF80048004715230008E3
:10014000AFF30080180500200648804706480047A6
:10015000FEE7FEE7FEE7FEE7FEE7FEE7FEE7FEE777
:10016000FEE7FEE7271D000831010008202A04DB16
:10017000203A21FA02F00021704721FA02F3D04020
:10018000C2F120029140084319467047D2B201E003
:1001900000F8012B491EFBD270470022F6E710B58C
:1001A00013460A4604461946FFF7F0FF204610BDE5
:1001B0002DE9F05F0546002092469B46884606469C
:1001C000814640241BE02846414647462246FFF729
:1001D000CDFF53465A46C01A914110D311461846D6
:1001E000224600F029F82D1A67EB01084F462246F7
:1001F0000120002100F020F817EB00094E41201EDD
:10020000A4F10104DFDC484631462A464346BDE8F6
:10021000F09F0000064C074D06E0E06840F0010347
:1002200094E8070098471034AC42F6D3FFF784FFF8
:100230008C230008AC230008202A04DB203A00FAB3
:1002400002F1002070479140C2F1200320FA03F32D
:10025000194390407047000001A001F0BFFEFEE787
:100260004275734661756C745F48616E646C65724B
:100270000D0A000001A001F0B1BE000044656275E6
:10028000674D6F6E5F48616E646C65720D0A0000A9
:1002900072B6FEE710B590F821100022022905D0B1
:1002A0000421816380F82020012010BD01680B68C3
:1002B00023F00E030B6001680B6823F001030B6051
:1002C00090F84030C46B012101FA03F3636080F8B9
:1002D000211080F82020104610BD00002DE9F05FAD
:1002E00090F821100024022903D004218163012405
:1002F00085E001680A6822F00E020A6001680A6857
:1003000022F001020A603F4E3E4FB215DFF8F4C002
:10031000DFF8F090DFF8ECA0DFF8E8B0DFF8E4E019
:100320000168783F13011502ACF1640CA9F1500982
:10033000AAF13C0AABF1280BAEF1140E4FF4801871
:10034000B14227D9B9420ED0614512D049451DD0DE
:10035000514518D0594518D0714501D1424615E094
:10036000294EB14201D1012210E0274E1436B1428C
:1003700001D110220AE0244E2836B14206D0224A8A
:100380003C32914201D11A4600E02A461E49091F1B
:100390000A602BE0B94213D0614517D0494522D0FD
:1003A00051451DD059451DD0714501D142461AE035
:1003B000B14202D14FF0807215E0134EB14201D12B
:1003C000012210E0104E1436B14201D110220AE091
:1003D0000D4E2836B14206D00B4A3C32914201D133
:1003E0001A4600E02A46074980394A60012180F810
:1003F0002110002180F82010416B01B18847204670
:10040000BDE8F09F800002400804024070B5044639
:1004100000F010F90546601C02D00448007804443E
:1004200000F008F9401BA042FAD370BD0400002080
:100430002DE9F84FDFF8C8910024A9F1040B2346F9
:100440000F2709F1040AABF1040ED1E00125A54004
:1004500006EA0502AA4276D1DFF8A8C14E68A6EBEB
:100460000C0866452BD00DDC032E34D005DC36B3EA
:10047000012E19D0022E2FD11BE0112E16D0122ED4
:100480002AD119E0B8F5881F19D006DCB8F5803FED
:1004900015D0B8F5801F1FD111E0B8F5001F0ED0A0
:1004A000B8F5041F18D10AE0CB6815E0CB681B1D16
:1004B00012E0CB6808330FE0CB680C330CE08B689C
:1004C0002BB1012B4FF0080303D0456104E0042356
:1004D00002E0056100E00023FF2A01D8064601E0A2
:1004E00000F104064FEA840501D9A5F12005D6F8EC
:1004F000008007FA05FC28EA0C0803FA05F548EA2B
:100500000508C6F800804D68ED0070D53E4DAE6917
:1005100046F00106AE61AD6924F0030605F0010561
:1005200000953A4D06EB050CDCF80850A607360F8F
:1005300007FA06F825EA0805DFF8D480404503D11C
:100540004FF0000825E052E0DFF8C880404502D1B6
:100550004FF001081DE0DFF8C080404502D14FF0A8
:10056000020816E0DFF8B480404502D14FF00308DE
:100570000FE0DFF8AC80404502D14FF0040808E0FE
:10058000DFF8A080404502D14FF0050801E04FF0B0
:10059000060808FA06F848EA0508CCF808804D680D
:1005A000D9F80060ED024D4601D5164300E09643B0
:1005B0002E604D68DAF80060AD02554601D516434D
:1005C00000E096432E604D68DBF80060AD035D46A9
:1005D00001D5164300E096432E604D68DEF80060BA
:1005E000ED03754601D5164300E096432E60641C6A
:1005F0000A681646E2407FF429AFBDE8F88F000094
:1006000008040140000011100010024000000140E9
:1006100000080140000C014000100140001401409E
:1006200000180140001C01400AB101617047090433
:10063000FBE70000014880687047000004000020CC
:1006400070B5040025D094F83D00002520B984F849
:100650003C50204600F0B8F8242084F83D00206883
:10066000016821F0010101602068016841F4004146
:1006700001602068016821F40041016000F000FA87
:100680004D4A6168914201D84C4900E04C4988428A
:1006900001D2012070BD4B492368B0FBF1F15E68C7
:1006A00026F03F060E435E606368934206D94FF41E
:1006B000967359434FF47A73B1FBF3F12368491CE5
:1006C0001E6A26F03F06314319626168914210D8D4
:1006D0004900401EB0FBF1F2521CC2F30B02042A87
:1006E00001D2042022E0B0FBF1F0401CC0F30B006B
:1006F0001CE0A268F2B301EBC10303EB0116431E39
:10070000B3FBF6F35B1C43F480431B0549D092B363
:1007100001EBC10202EB0111401EB0FBF1F0401CE5
:10072000C0F30B0040F4804040F400402168CA69E7
:100730004CF6FF739A431043C861D4E90710014394
:100740002068026822F0C00211430160D4E903016D
:1007500001432068826848F2FF339A431143816065
:10076000D4E9050108432168CA6822F0FF0210435A
:10077000C86001E00EE016E02068016841F0010168
:1007800001602564202084F83D00256384F83E50F4
:10079000002070BD01EB4106431EB3FBF6F35B1C6A
:1007A000B3E70120C2E701EB4101401EB0FBF1F0CD
:1007B000401CC0F30B00B7E7A086010080841E0038
:1007C00000093D0040420F0010B586B000210091A5
:1007D00001910291039100680F4988421AD10F4C90
:1007E000A06940F00800A061A069694600F0080017
:1007F0000490C0200090122001900320039008482C
:10080000FFF716FEE06940F40010E061E06900F4D3
:100810000010049006B010BD0054004000100240CB
:10082000000C0140024881680278114481607047E1
:1008300004000020074810B5016841F01001016074
:10084000032000F075F80F2000F006F800F024F8FF
:10085000002010BD0020024070B50D4D04464FF43D
:100860007A712878B1FBF0F00A490968B1FBF0F021
:1008700000F0C7FD48B9102C07D200222146501EB7
:1008800000F036F800206C6070BD012070BD0000E3
:1008900004000020100000200C4808B5816941F0D8
:1008A00001018161816901F001010091C16941F09B
:1008B0008051C161C06900F08050009004484168D7
:1008C00021F0E06141F00071416008BD001002407C
:1008D00000000140002809DB00F01F0201219140C7
:1008E0004009800000F1E020C0F8001170470000CE
:1008F000F0B40E4B1B680C46C3F30223C3F107058B
:10090000042D00D90425191D072901D2002300E078
:10091000DB1E012606FA05F1491E214099409E4042
:10092000761E16403143F0BC01F068BB0CED00E0D0
:10093000064900F0070208684FF6FF03184040EA36
:100940000220034A10430860704700000CED00E0ED
:100950000000FA052DE9F0470F46050061D0434E2F
:10096000306800F00700B84209D2306820F0070074
:1009700038433060306800F00700B84251D1286831
:100980003B4C810712D5400703D5606840F4E06016
:1009900060602878000703D5606840F460506060AC
:1009A0006068A96820F0F000084360602878C007FC
:1009B00028D06868012810D02168022810D0890743
:1009C00000292EDA616821F0030101436160FFF71D
:1009D00031FE804641F288390DE021688903EFE756
:1009E0008901EDE7FFF726FEA0EB0801494502D992
:1009F0000320BDE8F0876068696800F00C00B0EB88
:100A0000810FEFD1306800F00700B8420BD9306891
:100A100020F0070038433060306800F00700B8422B
:100A200001D00120E5E72878400705D56068E9682E
:100A300020F4E060084360602878000706D560680D
:100A4000296920F4605040EAC100606000F038F885
:100A50006168084AC1F30311515CC8400649086047
:100A600006480068FFF7F8FE0020C2E700200240B9
:100A7000001002407223000810000020080000202F
:100A80000448054900684968044AC1F30221515CE1
:100A9000C840704710000020001002408223000868
:100AA0000448054900684968044AC1F3C221515C01
:100AB000C840704710000020001002408223000848
:100AC0000E4A51680E4801F00C03042B11D0082B7C
:100AD0000FD10C48C1F38343C903C05C0AD55168E8
:100AE000084AC1F34041921E515C054A5043B0FB95
:100AF000F1F070470449484370470000001002407D
:100B000000127A006223000800093D002DE9F84F29
:100B1000040070D02078C04DC00749D06868C0F389
:100B20008100012807D06868C0F38100022809D13C
:100B30006868C00306D52868800339D56068002836
:100B4000E7D035E06068B0F5803F0BD010B1B0F56C
:100B5000A02F11D0286820F480302860286820F465
:100B6000802002E0286840F480302860606890B1FE
:100B7000FFF760FD06460AE0286840F48020286000
:100B8000F0E700BFFFF756FD801B642873D8286884
:100B90008003F7D50CE0FFF74DFD064605E000BFEA
:100BA000FFF748FD801B6428F0D828688003F7D43D
:100BB00020789A4E80074FF001094FF0000839D590
:100BC000686810F00C0F07D06868C0F38100022835
:100BD00009D16868C00306D42868800714D5206945
:100BE000012808D110E02069B0B1C6F80090FFF7E5
:100BF00021FD074605E00AE1FFF71CFDC01B0228A6
:100C0000C4D828688007F7D52868616920F0F80003
:100C100040EAC10028600DE0C6F80080FFF70AFD39
:100C2000074604E0FFF706FDC01B022823D828680A
:100C30008007F7D4207800072CD57948A169D9B16D
:100C4000C0F80090FFF7F6FC074604E0FFF7F2FC5F
:100C5000C01B02280FD8686A8007F7D571484FF487
:100C6000FA510068B0FBF1F0009000BF0098411EFF
:100C70000091FAD20EE080E0C0F80080FFF7DAFCC5
:100C8000074604E0FFF7D6FCC01B022875D8686A47
:100C90008007F7D42078400760D5E8690027C000B6
:100CA00008D4E86940F08050E861E869012700F065
:100CB000805000905C480168C90513D401688346E0
:100CC00041F480710160FFF7B5FC824606E000BF89
:100CD000FFF7B0FCA0EB0A0064284ED8DBF8000058
:100CE000C005F5D5E06801280AD008B1052813D061
:100CF000286A20F001002862286A20F0040002E03F
:100D0000286A40F001002862E06841F2883B98B10F
:100D1000FFF790FC82460BE0286A40F0040028624E
:100D2000EEE700BFFFF786FCA0EB0A0159455AD851
:100D3000286A8007F6D50CE0FFF77CFC824605E0C8
:100D4000FFF778FCA0EB0A0159454CD8286A8007C8
:100D5000F6D41FB1E86920F08050E861E06988B3FB
:100D60006968C1F38101022944D00228C6F8608075
:100D700004D0FFF75FFC044638E034E0FFF75AFC8C
:100D8000074604E0FFF756FCC01B02282BD8286852
:100D90008001F7D4206AB0F5803F05D16868A1686A
:100DA00020F4003008436860D4E90801084369680A
:100DB00021F4741108436860C6F86090FFF73AFCAC
:100DC000044606E025E000BFFFF734FC001B0228C4
:100DD00009D828688001F7D51BE000BFFFF72AFC7F
:100DE000001B022802D90320BDE8F88F2868800183
:100DF000F4D40EE00128F7D06868226A00F480314C
:100E0000914204D1616A00F47010884201D001203F
:100E1000EAE70020E8E7000000100240000042423C
:100E200080044242100000200070004070B50400B1
:100E300009D0606A002540B125616561A56294F81A
:100E4000510040B10CE0012070BD6068B0F5827FB8
:100E5000F4D0E561F2E784F85050204600F040F805
:100E6000022084F851002068016821F040010160EF
:100E7000A088218900F4827001F404410843A1890B
:100E800001F400610843217C01F002010843217D47
:100E900001F001010843218B01F400710843217F17
:100EA00001F03801084394F8201001F08001084354
:100EB000218D01F40051084321680860A0690421D4
:100EC00001EA1040216848602068C16921F400618E
:100ED000C1616565012084F85100002070BD0000EB
:100EE00030B585B000240094019402940394006806
:100EF0001449884223D11448816941F480518161A9
:100F0000816901F480510491816941F0040181619A
:100F100080690E4D00F004000490A0200090022093
:100F200001900320039069462846FFF781FA40208C
:100F3000CDE90004694628460294FFF779FA05B026
:100F400030BD0000003001400010024000080140A8
:100F50002DE9F84F044690F85100984616460F4682
:100F60000025012801D0022598E060684FF0040BAD
:100F7000B0F5827F01D1A068F8B194F85000012843
:100F800026D04FF0010984F85090FFF753FB8246BA
:100F9000002F7FD0002E7DD084F851B000206065F6
:100FA000A763A687E6872063A086E0862064606446
:100FB000A068B0F5004F0DD016E084F851B013468C
:100FC0000A462046CDF8008000F024F9BDE8F88FED
:100FD0000220FBE72068016821F0400101602068E1
:100FE000016821F48041016020680168490603D44A
:100FF000016841F040010160E068D8B13BE0206841
:101000008168C90709D0007BA16B0870A06B401CE8
:10101000A063E08F401EE0870CE0FFF70BFBA0EB26
:101020000A01414503D3B8F1FF3F03D006E0B8F110
:10103000000F03D0E08F0028E1D11FE003252BE053
:1010400020688168C90709D0C068A16B0880A06BBF
:10105000801CA063E08F401EE0870CE0FFF7EAFAF7
:10106000A0EB0A01414503D3B8F1FF3F03D0E5E708
:10107000B8F1000FE2D0E08F0028E1D1524641469E
:10108000204600F039FD08B120206065606D00E069
:1010900000E008B1012501E084F85190002084F8B7
:1010A0005000284692E72DE9F84F044690F850008A
:1010B0000026984615468A4601280CD0012784F858
:1010C0005070FFF7B7FA814694F85100B3460128F3
:1010D00004D002269AE00220BDE8F88FBAF1000F92
:1010E0006FD0002D6DD0032084F85100C4F854B0A7
:1010F000C4F830A0A586E586C4F838B0A4F83CB0A2
:10110000A4F83EB0C4F844B0C4F840B0A068B0F54C
:10111000004F09D12068016821F04001016020687A
:10112000016841F48041016020680168490603D4E8
:10113000016841F040010160E068B0F5006F60684F
:1011400003D058B3012D29D049E008B1012D1FD19A
:10115000206B21680088C86006E0206881688907E4
:1011600009D5216B0988C160206B801C2063E08E4B
:10117000401EE0860CE0FFF75DFAA0EB0901414557
:1011800003D3B8F1FF3F03D006E0B8F1000F03D05E
:10119000E08E0028E1D125E0032635E0206B2168B0
:1011A0000078087306E02068816889070AD5216BFA
:1011B00009780173206B401C2063E08E401EE0869E
:1011C0000DE01FE0FFF736FAA0EB0901414503D31C
:1011D000B8F1FF3F03D0DFE7B8F1000FDCD0E08EBD
:1011E0000028E0D14A464146204600F0B3FC08B151
:1011F00020206065A06818B92068C16880680090E8
:10120000606D08B1012601E084F8517084F850B097
:10121000304661E72DE9FF4F81B0044690F8500059
:1012200000260E9F1D4693464FF0010901280FD05E
:101230004FF0010A84F850A0FFF7FCF9804694F8BB
:101240005100616801280DD0B1F5827F08D103E01B
:10125000022005B0BDE8F08FA16809B9042801D0CB
:101260000226C9E00298002865D0BBF1000FFBD030
:10127000002DF9D094F85100042802D0052084F8FC
:10128000510000206065C4F838B0E587A587029951
:101290002163E586A58620646064206801684906AC
:1012A00003D4016841F040010160E068B0F5006FCF
:1012B000606803D0F0B3012D47D081E008B1012D63
:1012C0003CD1206B21680088C860206B801C2063A3
:1012D000E08E401EE08631E02068816889070FD5E6
:1012E000E18E69B1B9F1010F0AD1216B0988C160A2
:1012F000206B801C2063E08E401EE0864FF00009CA
:1013000020688168C9070CD0E18F51B1C068A16B1A
:101310000880A06B801CA063E08F401EE0874FF028
:101320000109FFF787F9A0EB0800B84206D3781C43
:1013300004D001E009E05BE003265BE0E08E0028DA
:10134000CAD1E08F0028C7D140E0206B2168007827
:101350000873206B401C2063E08E401EE0862FE067
:101360002068816889070FD5E18E69B1B9F1010F55
:101370000AD1216B09780173206B401C2063E08E39
:10138000401EE0864FF0000920688168C9070CD034
:10139000E18F51B1C068A16B0870A06B401CA063C5
:1013A000E08F401EE0874FF00109FFF743F9A0EB03
:1013B0000800B84202D3781C02D0BAE7002FB8D098
:1013C000E08E0028CCD1E08F0028C9D142463946B2
:1013D000204600F0BFFB18B10126202060650BE01D
:1013E000A06818B92068C16880680090606D08B175
:1013F000012601E084F851A0002084F85000304616
:1014000027E710B5401EB0F1807F01D3012010BD49
:101410004FF0E02460610F21601700F0EFFD002025
:10142000A06107202061002010BD704770470000B8
:10143000F8B5016804460868CA684B6910F00F0FD8
:101440004FF0000559D003F0010602F490773743BE
:1014500065D0C10705D0D10503D5616C41F001010C
:101460006164410705D5D90703D0616C41F00201E1
:101470006164810705D5D90703D0616C41F004018F
:101480006164010707D502F02001314303D0616C8C
:1014900041F008016164616C00293AD0800604D5EE
:1014A000900602D5204600F06EFC20684069616C11
:1014B000C0F38010090700D460B3204600F03CFC64
:1014C00020684069400621D52068143050E8001F8C
:1014D00021F0400140E80012002AF5D1E06BA8B1EC
:1014E0006D494163E06BFEF7F9FE002811D0E06B17
:1014F000416B01B0BDE8F040084783060FD5930665
:101500000DD52046BDE8F84000F03DBC2046FFF771
:101510008DFFF8BD2046FFF789FF6564F8BD266B97
:101520002023012E7CD1C6067AD5D60678D5086848
:101530004868009048694FF00206400640D5E16BCC
:10154000086840680004000CE8D0A28D8242E5D90A
:10155000E085886920282DD020680C3050E8001FD5
:1015600021F4807140E80012002AF5D1206814307F
:1015700050E8001F21F0010140E80012002AF5D1D7
:101580002068143050E8001F21F0400140E80012AC
:10159000002AF5D184F84230256320680C3050E8E9
:1015A000001F21F0100140E80012002AF5D1E06B85
:1015B000FEF770FE6663A08DE18D401A81B22AE0CD
:1015C000A08DE18D401A81B2E08D0028A6D00029BF
:1015D000A4D022680C3252E8000F20F4907042E848
:1015E0000007002FF5D12068143050E8002F22F0BA
:1015F000010240E80027002FF5D184F8423025632E
:1016000020680C3050E8002F22F0100240E8002340
:10161000002BF5D166632046FFF707FFF8BDFFE713
:1016200005062BD5150629D594F841002128F5D1BA
:10163000A068B0F5805F01D12069B0B1206A411C7B
:101640002162216800784860E08C401E0004000C94
:10165000E084E3D12068C16821F08001C160206886
:10166000C16841F04001C160D8E7206A0088C0F33A
:1016700008004860206A801C2062E5E74006CDD55E
:101680005006CBD5CA68204622F04002CA6084F8D2
:10169000413000F000F9C1E7291D000870B50400D1
:1016A00004D094F84100002510B106E0012070BD7F
:1016B00084F84050204600F023F8242084F84100AC
:1016C0002068C16821F40051C160204600F0BCFBD5
:1016D0002068016921F4904101612068416921F08D
:1016E0002A0141612068C16841F40051C16065640C
:1016F000202084F8410084F842006563002070BD1A
:1017000030B585B0002400940194029403940068DD
:10171000184988422CD11848816941F4804181617F
:10172000816901F480410491816941F00401816182
:101730008069124D00F0040004904FF40070009096
:10174000022001900320039069462846FEF770FEB0
:101750002815CDE90004694628460294FEF768FE84
:1017600000220A212520FFF7C3F82520FFF7B2F851
:1017700005B030BD003801400010024000080140B3
:1017800090F84230202B01D00220704721B11AB1CD
:101790000023036300F0B4BB0120704710B500685C
:1017A0001349884223D113480078303808281CD2C6
:1017B000DFE800F01B040F11131517195FF001008B
:1017C00000F078F8BDE8104001220A490A48FFF706
:1017D000D7BF0220F4E70320F2E70420F0E705205A
:1017E000EEE70620ECE70720EAE70020E8E710BD77
:1017F000003801400C010020C40000202DE9F8430E
:10180000044690F841001F4616460D46202802D097
:101810000220BDE8F8837DB176B10020606421200C
:1018200084F84100FEF706FFA6848046E684A0689F
:10183000B0F5805F02D003E00120EAE7206910B133
:101840002E4600250EE000260CE08021204600F008
:1018500072FBA0B9AEB116F8010B21684860E08CAC
:10186000401EE084E08C43464FF0000200970028C1
:10187000EBD14FF04001204600F05DFB30B103207A
:10188000C7E735F8020BC0F30800E6E7202084F82C
:1018900041000020BDE7704701A000F09FFBFEE77C
:1018A000486172644661756C745F48616E646C6512
:1018B000720D0A0010B51E4C082837D2DFE800F080
:1018C00036041012191B282F002220212046FEF773
:1018D000ABFE012201212046FEF7A6FE012211E007
:1018E000002200E0012220212046FEF79DFE00227A
:1018F000F0E7012214E001220BE001212046FEF76F
:1019000093FE00222046BDE810400221FEF78CBE67
:10191000002220212046FEF787FE0122EDE700226B
:1019200020212046FEF780FE0022E6E70122CCE7D8
:10193000000C0140F0B585B00024274800940194C4
:1019400002940394816941F010018161816901F081
:1019500010010491816941F004018161816901F004
:1019600004010491816941F00801816180691B4E85
:1019700000F008000122049011463046FEF754FEA4
:10198000174F012223213846FEF74EFE7014CDE991
:101990000004694630460294FEF74AFD0320CDE973
:1019A000024001250095694601953046FEF740FD4D
:1019B000CDE9005469460B480294FEF739FD232017
:1019C000CDE900050220CDE9024069463846FEF720
:1019D0002FFD05B0F0BD00000010024000100140D6
:1019E000000C0140000801400D4810B50B49016092
:1019F0000C4941600021A422C0E902124FF4804248
:101A0000C0E904218161C1610162FEF719FE00286D
:101A100003D0BDE81040FEF73BBC10BD00540040B1
:101A200018000020801A0600104810B50E49016009
:101A30004FF482714160002102228160C0E90312EB
:101A400001224261520282610822C0E907214162FB
:101A500081620A21C162FFF7E9F9002803D0BDE8DD
:101A60001040FEF715BC10BD003001406C00002096
:101A70000C4810B50A4901604FF4E1314160002182
:101A800081600C22C160C0E904128161C161FFF76D
:101A900005FE002803D0BDE81040FEF7F9BB10BDDD
:101AA00000380140C400002001A000F097FAFEE7D2
:101AB0004D656D4D616E6167655F48616E646C6513
:101AC000720D0A0001A000F089FAFEE74E4D495F51
:101AD00048616E646C65720D0A00000001A000F0A0
:101AE0007DBA000050656E6453565F48616E646C49
:101AF00065720D0A00000000F8B5044640684FF416
:101B00008273984217D1A0684FF48065B0F5004FFA
:101B100001D0A8420FD12068066826F04006066072
:101B20006068984207D1A068A84204D100920B4691
:101B30000022012103E000920B4600228021204672
:101B400000F058F8002804D0606D40F02000606577
:101B50000320F8BD38B50B460092044600228021D0
:101B600000F048F8002804D0606D40F02000606567
:101B7000032038BDF8B50024174E22460121304617
:101B80000094FEF751FD4FF47A752B460422134959
:101B90001348FFF788FA2B46022269461048FFF7E0
:101BA000D7F90546012211463046FEF73DFD29468C
:101BB0000CA000F013FA21460CA000F00FFA214609
:101BC0000AA000F00BFA214608A000F007FABDF8C1
:101BD000000040BAF8BD00000010014000000020E5
:101BE0006C00002025640D0A0000000025580D0A35
:101BF000000000002DE9F8431E4691468846044641
:101C0000089DFEF717FD401B351AFEF713FD07462A
:101C100025480068C0F3CB30684338E0701C37D0EB
:101C2000FEF708FDC01BA84203D215B1009860B3AF
:101C30002CE02068416821F0E00141606068B0F567
:101C4000827F0BD1A068B0F5004F02D0B0F5806F55
:101C500004D12068016821F040010160A06AB0F55C
:101C6000005F09D12068016821F4005101602068FB
:101C7000016841F400510160012084F85100002006
:101C800084F850000320BDE8F8830025401E009032
:101C90002068816838EA010004D000214945BDD19F
:101CA0000020F0E70121F9E71000002001A000F07A
:101CB00095B900005356435F48616E646C65720DC0
:101CC0000A000000FEF7AEBD30B58FB0282168468F
:101CD000FEF763FA14210AA8FEF75FFA012108044F
:101CE000CDE900100024029402250491CDE90750AB
:101CF0004FF4E01009906846FEF708FF08B172B68D
:101D0000FEE70F20CDE90A054FF48060CDE90C40D5
:101D100002210AA80E94FEF71DFE002801D072B61B
:101D2000FEE70FB030BD704710B5406A0021C18595
:101D3000C184FFF77BFB10BD01680C3151E8002F17
:101D400022F4907241E80023002BF5D10168143190
:101D500051E8002F22F0010241E80023002BF5D1C9
:101D6000016B012909D101680C3151E8002F22F0E3
:101D7000100241E80023002BF5D1202180F8421009
:101D800000210163704708B590F84210222901D064
:101D9000022008BD82684FF480539A4201D1016944
:101DA00021B1816A9A421BD04AB10AE00268816A75
:101DB0005268C2F308020A80816A891C08E002693D
:101DC00072B10268526802F07F020A70816A491C8F
:101DD0008162C18D491E0904090CC18503D01BE035
:101DE00002685268F1E70168CA6822F02002CA60FE
:101DF0000168CA6822F48072CA6001684A6922F0E8
:101E000001024A61202180F8421000214163026BE7
:101E1000012A03D0FFF7C2FC002008BD016301685E
:101E20000C3151E8002F22F0100241E80023002B72
:101E3000F5D101680A68D20602D50A68496800919E
:101E4000818DFFF7F2FAE7E770B504460068016993
:101E5000E26821F44051114301612169A0680843FF
:101E6000616908432168CA6841F20C639A430243DE
:101E7000CA6020684169A26921F44071114341613F
:101E80001E492068884202D1FEF70AFE01E0FEF7F3
:101E9000F7FD00EBC00101EB0012606864218000D7
:101EA000B2FBF0F3B3FBF1F36FF018067343B2FB30
:101EB000F0F5B2FBF0F605EB8305322303EB0515D5
:101EC000B5FBF1F5B6FBF1F605F0F00505EB0615EF
:101ED000B2FBF0F6B2FBF0F0B0FBF1F06FF01802DD
:101EE000504306EB800003EB0010B0FBF1F02168DB
:101EF00000F00F002844886070BD000000380140E9
:101F000081628285C28500214164222180F84210CD
:101F1000016921B10168CA6842F48072CA6001682F
:101F20004A6942F001024A610068C16841F020013B
:101F3000C160002070472DE9F041984617460E46D3
:101F40000446069D27E0681C25D02DB1FEF772FBE4
:101F5000A0EB0800A8421ED920680C3050E8001FF2
:101F600021F4D07140E80012002AF5D12068143025
:101F700050E8001F21F0010140E80012002AF5D1CD
:101F8000202084F8410084F84200002084F84000BA
:101F90000320BDE8F0812068006836EA000004D024
:101FA0000020B842CFD00020F3E70120F9E700007D
:101FB0000148FFF73DBA0000C400002001A000F076
:101FC0000DF8FEE755736167654661756C745F488F
:101FD000616E646C65720D0A000000000FB4054B61
:101FE00010B503A9044A029800F028F810BC5DF867
:101FF00014FB0000FD220008140000200907090E50
:10200000002804DB00F1E02080F80014704700F0A5
:102010000F0000F1E02080F8141D704702E008C8AE
:10202000121F08C1002AFAD170477047002001E052
:1020300001C1121F002AFBD1704700002DE9FF4F9C
:102040008DB09B460F460446002606E025280BD09F
:102050005A460F999047641C761C20780028F5D1C9
:1020600011B03046BDE8F08F0025A84601229849FE
:1020700000E0054314F8013F203B02FA03F0084258
:10208000F7D120782E2817D114F8010F45F0040558
:102090002A280ED06FF02F022078A0F130010929F4
:1020A0000AD808EB880102EB410100EB0108641C2F
:1020B000F2E757F8048B641C20786C280DD004DC00
:1020C0004C2812D06A2811D104E074280DD07A2847
:1020D0000CD10AE045F4001507E0617845F480155D
:1020E000814202D1641C05F58015641C20786928A2
:1020F00044D008DC0028B3D0582867D063280FD01C
:10210000642808D13AE0702865D0732812D0752869
:102110005AD078285AD05A460F999047761CD5E065
:1021200017F8040B8DF8000000208DF80100E94637
:10213000012003E057F8049B4FF0FF3069074FF090
:10214000000501D40AE06D1C45450DDA8542FADB35
:1021500019F805100029F6D106E06D1C8542FCDB5C
:1021600019F805100029F8D12E4404E019F8010BE4
:102170005A460F9990476D1EF8D2A7E00A20002119
:10218000CDE90801C5F3025002280CD001CFC117D8
:10219000021E71F100020CDA0023D0EB030063EBA6
:1021A00001012D2208E0FF1D27F00707F7E80201D3
:1021B000EEE72A0504D52B228DF8282001223CE0E9
:1021C000EA073AD02022F7E70A2000E01020002199
:1021D000CDE9080107E01020002145F00405CDE914
:1021E00008014FF00808C5F30250022810D001CFB3
:1021F00000214FF0000A2A0720D52278702A0DD03E
:10220000DDE908C38CF0100C5CEA030C0CD015E07F
:10221000FF1D27F00707F7E80201EAE740228DF8E3
:1022200028204FF0010A0CE050EA010306D03023C9
:102230008DF828308DF82920022292462278582ADB
:1022400004D024A20DF120090B9209E026A2F9E79F
:10225000DDE90823FDF7ACFF0B9B9B5C09F8013D12
:1022600050EA0102F4D1ADEB090020300890680774
:1022700001D44FF001080899884503DD0898A8EBC0
:10228000000000E000208046002506E00AA85A462B
:10229000405D0F9990476D1C761C5545F6DB04E0B8
:1022A00030205A460F999047761CB8F10001A8F1EA
:1022B0000108F5DC05E019F8010B5A460F99904723
:1022C000761C0899481E08900029F4DC641CC4E6BA
:1022D00009280100303132333435363738396162FC
:1022E00063646566000000003031323334353637C0
:1022F00038394142434445460000000013B54FF6CB
:10230000FF73012269460248FFF778FA00981CBD66
:10231000C4000020FEF78EFAFFF7D6FCFFF70AFB99
:10232000FFF7A6FBFFF760FBFFF77EFB01220749E3
:102330000748FFF725FAFFF71DFC014605A0FFF748
:102340004DFE0A20FEF762F8FBE700000C010020BA
:10235000C40000203078252E3658202000000000D0
:10236000010202030405060708090A0B0C0D0E0FF3
:102370001010000000000000000001020304060726
:10238000080900000000010203040000AC2300085B
:1023900000000020180000001C200008C4230008D2
:1023A00018000020000500002C200008900000000C
:1023B0000100000010000000000000000024F400F4
:0423C0000000000019
:0400000508000131BD
:00000001FF
