:020000040800F2
:10000000381F0020E1010008CD2000088D1D0008E8
:10001000B1200008F5020008C1240008000000001B
:10002000000000000000000000000000490100087E
:100030001D030008000000008D010008ED200008ED
:10004000FB010008FB010008FB010008FB010008A0
:10005000FB010008FB010008FB010008FB01000890
:10006000FB010008FB010008FB010008FB01000880
:10007000FB010008FB01000811030008FB01000858
:10008000FB010008FB010008FB010008FB01000860
:10009000FB010008FB010008FB010008FB01000850
:1000A000FB010008FB010008FB010008FB01000840
:1000B000FB010008FB010008FB010008FB01000830
:1000C000FB010008FB010008FB010008FB01000820
:1000D000FB010008B5240008FB010008FB01000833
:1000E000FB010008FB010008FB010008FB01000800
:1000F000FB010008FB010008FB010008FB010008F0
:10010000FB010008FB010008FB010008FB010008DF
:10011000FB010008FB01000895210008FB01000815
:10012000FB010008FB010008FB010008FB010008BF
:10013000DFF810D000F0A0F800480047F5260008CE
:10014000AFF30080381F0020224B19680868B0E820
:10015000F00F80F30988BFF36F8F4FF0000080F33A
:1001600011884EF00D0E7047000000000648006830
:10017000006880F3088862B661B6BFF34F8FBFF3A3
:100180006F8F00DF00BF00BF08ED00E0EFF30980D4
:10019000BFF36F8F0F4B1A6820E9F00F106008B59E
:1001A0004FF0500080F31188BFF34F8FBFF36F8F74
:1001B00003F06EFA4FF0000080F31188BDE80840AC
:1001C00019680868B0E8F00F80F30988BFF36F8FF3
:1001D000704700BF2C000020EFF30580704700003F
:1001E0000648804706480047FEE7FEE7FEE7FEE7D1
:1001F000FEE7FEE7FEE7FEE7FEE7FEE793210008E5
:100200003101000840EA01039B0703D009E008C957
:10021000121F08C0042AFAD203E011F8013B00F8CB
:10022000013B521EF9D27047D2B201E000F8012B17
:10023000491EFBD270470022F6E710B513460A4666
:1002400004461946FFF7F0FF204610BD30B50B46B7
:10025000014600202022012409E021FA02F59D42F6
:1002600005D303FA02F5491B04FA02F52844151ECA
:10027000A2F10102F1DC30BD064C074D06E0E0685A
:1002800040F0010394E8070098471034AC42F6D3DD
:10029000FFF752FF9C420008BC42000870B50446BC
:1002A00000688168C943C90717D1816821F001013D
:1002B000816000F09DFC05460AE000BF00F098FC5C
:1002C000401B022804D920688068C043C00706D0BC
:1002D00020688068C043C007F0D0002070BDA06ACD
:1002E00040F01000A062E06A40F00100E0620120EE
:1002F00070BD000001A002F017F9FEE742757346D9
:1003000061756C745F48616E646C65720D0A000003
:10031000014800F009BA0000CC01002001A002F061
:1003200003B9000044656275674D6F6E5F48616E8A
:10033000646C65720D0A000072B6FEE7F8B5002421
:10034000009490F824202546012A12D0012280F83A
:1003500024204A681F23072A0DD20668776B521E95
:1003600002EB820293409F430B6893401F437763E5
:1003700019E00220F8BD06680D2A0AD2376BD21F99
:1003800002EB820293409F430B6893401F43376305
:1003900009E0F76A0D3A02EB820293409F430B6833
:1003A00093401F43F7620A68072306680A2A0AD3A4
:1003B000F7680A3A02EB420293409F438B689340EE
:1003C0001F43F76008E0376902EB420293409F4306
:1003D0008B6893401F4337610A68102A01D0112AA5
:1003E00020D1124B02689A4217D193681B0219D48C
:1003F000936843F4000393600968102912D10C49F3
:100400000C4A0968B1FBF2F101EB8101490000E0FF
:10041000491E00910029FBD104E0816A41F02001CE
:100420008162012480F824502046F8BD0024014058
:100430002800002040420F002DE9F04104004FF059
:1004400000057FD0A06A002628B9E66284F82460FF
:10045000204600F081F82046FFF720FFA16AC90678
:1004600000D420B1A06A40F01000A0626AE0A16A46
:1004700021F4885141F00201A162334923688B4283
:10048000E16904D1B1F5402F01D14FF40021277B60
:100490004FF4807C41EA470261680A43A1686145E4
:1004A00008D0012906D0002194F814E0BEF1010F14
:1004B00002D00AE06146F7E7C7B1A76A47F0200714
:1004C000A762E76A47F00107E7625F6827F46947B8
:1004D0000F435F60236899681C4F3940114399604E
:1004E000A16861450BD0012909D00CE0DFF860E07C
:1004F000A7690EEB47370F4347F40061E5E7218A10
:100500000D05A5F580152168CB6A23F470032B43F4
:10051000CB62216889680F4B1940914208D1E6628D
:10052000A16A21F0020141F00101A162BDE8F08160
:10053000A06A20F0020040F01000A062E06A40F0E3
:100540000100E0620120F1E7003C0140FDF7E1FF1E
:1005500000E0FFFFFE0E1FFF00B585B000210091F7
:1005600001910291039100680E49884218D10E480A
:10057000816941F400718161816901F40071049124
:10058000816941F0100181618069694600F01000C5
:1005900004900220009003200190044800F026FA05
:1005A00005B000BD002401400010024000100140D1
:1005B00010B590F821100022022905D00421816392
:1005C00080F82020012010BD01680B6823F00E0385
:1005D0000B6001680B6823F001030B6090F840305A
:1005E000C46B012101FA03F3636080F8211080F8E5
:1005F0002020104610BD00002DE9F05F90F821107A
:100600000024022903D004218163012485E00168CC
:100610000A6822F00E020A6001680A6822F00102EC
:100620000A603F4E3E4FB215DFF8F4C0DFF8F0909D
:10063000DFF8ECA0DFF8E8B0DFF8E4E00168783F2D
:1006400013011502ACF1640CA9F15009AAF13C0A9E
:10065000ABF1280BAEF1140E4FF48018B14227D93C
:10066000B9420ED0614512D049451DD0514518D030
:10067000594518D0714501D1424615E0294EB14285
:1006800001D1012210E0274E1436B14201D11022CF
:100690000AE0244E2836B14206D0224A3C3291422A
:1006A00001D11A4600E02A461E49091F0A602BE0C4
:1006B000B94213D0614517D0494522D051451DD0CC
:1006C00059451DD0714501D142461AE0B14202D1CF
:1006D0004FF0807215E0134EB14201D1012210E0BB
:1006E000104E1436B14201D110220AE00D4E2836C8
:1006F000B14206D00B4A3C32914201D11A4600E089
:100700002A46074980394A60012180F821100021DA
:1007100080F82010416B01B188472046BDE8F09F6A
:1007200080000240080402402DE9F05FC16B0A68B6
:1007300001680B68046C4FF0040808FA04F8844D53
:10074000844E854FDFF814C2DFF81492DFF814A24C
:10075000DFF814B2DFF814E218EA020F65D05FEA9E
:10076000437862D50A68920603D40A6822F004022C
:100770000A60DFF8F0814FF48062016808F1140824
:1007800013011402414524D9A9420DD0B1420FD022
:10079000B9421AD0614515D0494515D0514501D10E
:1007A000120312E0594501D104220EE0714501D136
:1007B00040220AE06D4D1435A94206D06B4A28321A
:1007C000914201D11A4600E022466749091F0A609A
:1007D00029E0A94213D0B14215D0B94220D06145D9
:1007E0001BD049451BD0514502D14FF4800217E080
:1007F000414502D14FF0806212E0594501D10422F7
:100800000EE0714501D140220AE0584D1435A9424D
:1008100006D0564A2832914201D11A4600E02246BB
:100820004B4908394A60C16A71E04FF0020808FA82
:1008300004F818EA020F70D05FEA83786DD50A6871
:10084000920606D40A6822F00A020A60012180F8A2
:100850002110DFF810814FF40072016808F11408CC
:1008600013011402414524D9A9420DD0B1420FD041
:10087000B9421AD0614515D0494515D0514501D12D
:10088000120312E0594501D102220EE0714501D157
:1008900020220AE0354D1435A94206D0334A2832C9
:1008A000914201D11A4600E022462F49091F0A60F1
:1008B00029E0A94213D0B14215D0B94220D06145F8
:1008C0001BD049451BD0514502D14FF4001217E00F
:1008D000414502D14FF0007212E0594501D1022288
:1008E0000EE0714501D120220AE0204D1435A942C5
:1008F00006D01E4A2832914201D11A4600E0224613
:10090000134908394A60002180F82010816A0029C3
:100910001CD0BDE8F05F0847FFE70825A540154259
:1009200014D01A0712D50A6822F00E020A6090F855
:100930004020C36B012101FA02F25A60816380F802
:100940002110002180F82010016BE0E7BDE8F09F46
:10095000080002401C0002403000024044000240F7
:10096000580002406C000240080402401C0402408F
:1009700030B560B11A4B026814219A4209D2194B62
:100980001344B3FBF1F18900016417490AE0012027
:1009900030BD134B5B421344B3FBF1F1890001649A
:1009A0000F490839C163022180F82110136843F60A
:1009B000F0718B43F0E901142143D0E902452C4347
:1009C0002143046921434469214384692143194334
:1009D000116000214163012242770177084630BD52
:1009E00008040240F8FFFDBF000002402DE9F84F67
:1009F000DFF8C8910024A9F1040B23460F2709F161
:100A0000040AABF1040ED1E00125A54006EA050277
:100A1000AA4276D1DFF8A8C14E68A6EB0C0866455D
:100A20002BD00DDC032E34D005DC36B3012E19D0CB
:100A3000022E2FD11BE0112E16D0122E2AD119E032
:100A4000B8F5881F19D006DCB8F5803F15D0B8F589
:100A5000801F1FD111E0B8F5001F0ED0B8F5041F9C
:100A600018D10AE0CB6815E0CB681B1D12E0CB68FB
:100A700008330FE0CB680C330CE08B682BB1012BF3
:100A80004FF0080303D0456104E0042302E0056150
:100A900000E00023FF2A01D8064601E000F1040629
:100AA0004FEA840501D9A5F12005D6F8008007FAA0
:100AB00005FC28EA0C0803FA05F548EA0508C6F81B
:100AC00000804D68ED0070D53E4DAE6946F00106E0
:100AD000AE61AD6924F0030605F0010500953A4DBD
:100AE00006EB050CDCF80850A607360F07FA06F8E7
:100AF00025EA0805DFF8D480404503D14FF000080F
:100B000025E052E0DFF8C880404502D14FF00108EF
:100B10001DE0DFF8C080404502D14FF0020816E02A
:100B2000DFF8B480404502D14FF003080FE0DFF852
:100B3000AC80404502D14FF0040808E0DFF8A08007
:100B4000404502D14FF0050801E04FF0060808FAD1
:100B500006F848EA0508CCF808804D68D9F8006026
:100B6000ED024D4601D5164300E096432E604D68D8
:100B7000DAF80060AD02554601D5164300E0964311
:100B80002E604D68DBF80060AD035D4601D516436D
:100B900000E096432E604D68DEF80060ED03754678
:100BA00001D5164300E096432E60641C0A68164681
:100BB000E2407FF429AFBDE8F88F0000080401404F
:100BC0000000111000100240000001400008014028
:100BD000000C0140001001400014014000180140C9
:100BE000001C01400AB1016170470904FBE70000E5
:100BF00001488068704700001C00002070B50400A8
:100C000025D094F83D00002520B984F83C502046BA
:100C100000F0B8F8242084F83D002068016821F035
:100C2000010101602068016841F400410160206811
:100C3000016821F40041016000F0C8FA4D4A616882
:100C4000914201D84C4900E04C49884201D2012030
:100C500070BD4B492368B0FBF1F15E6826F03F069A
:100C60000E435E606368934206D94FF4967359430E
:100C70004FF47A73B1FBF3F12368491C1E6A26F026
:100C80003F06314319626168914210D84900401E05
:100C9000B0FBF1F2521CC2F30B02042A01D2042071
:100CA00022E0B0FBF1F0401CC0F30B001CE0A26896
:100CB000F2B301EBC10303EB0116431EB3FBF6F3E2
:100CC0005B1C43F480431B0549D092B301EBC10286
:100CD00002EB0111401EB0FBF1F0401CC0F30B0011
:100CE00040F4804040F400402168CA694CF6FF732C
:100CF0009A431043C861D4E9071001432068026891
:100D000022F0C00211430160D4E9030101432068CD
:100D1000826848F2FF339A4311438160D4E90501A8
:100D200008432168CA6822F0FF021043C86001E04E
:100D30000EE016E02068016841F0010101602564C1
:100D4000202084F83D00256384F83E50002070BDCB
:100D500001EB4106431EB3FBF6F35B1CB3E7012036
:100D6000C2E701EB4101401EB0FBF1F0401CC0F3B3
:100D70000B00B7E7A086010080841E0000093D003B
:100D800040420F0010B586B0002100910191029100
:100D9000039100680F4988421AD10F4CA06940F0B6
:100DA0000800A061A069694600F008000490C02016
:100DB000009012200190032003900848FFF716FED0
:100DC000E06940F40010E061E06900F40010049074
:100DD00006B010BD0054004000100240000C01405D
:100DE0000248816802781144816070471C0000202D
:100DF000074810B5016841F010010160032000F0C0
:100E0000A7F80F2000F006F800F050F8002010BD01
:100E10000020024030B505461F4887B0C16941F047
:100E20001001C161C06906A900F01000009001A87E
:100E300000F0ACF90498B0B100F0C8F940001749CF
:100E4000174AB0FBF1F11748491E0260416040F2B9
:100E5000E7320021C0E903218160816100F020FCBC
:100E6000040003D015E000F0B1F9E8E70D4800F008
:100E700045FC04000DD1362000F03CF8102D07D2BF
:100E800000222946362000F043F80748056000E0BC
:100E9000012407B0204630BD0010024040420F0040
:100EA0000010004010020020200000200F4808B56C
:100EB000816941F001018161816901F001010091C5
:100EC000C16941F08051C161C069002200F08050C9
:100ED00000900F21901E00F01BF80548416821F09A
:100EE000E06141F00071416008BD00000010024067
:100EF00000000140002809DB00F01F0201219140A1
:100F00004009800000F1E020C0F8001170470000A7
:100F1000F0B40E4B1B680C46C3F30223C3F1070564
:100F2000042D00D90425191D072901D2002300E052
:100F3000DB1E012606FA05F1491E214099409E401C
:100F4000761E16403143F0BC01F0FEBA0CED00E015
:100F5000064900F0070208684FF6FF03184040EA10
:100F60000220034A10430860704700000CED00E0C7
:100F70000000FA052DE9F84305460078354CC00716
:100F800054D0E0690026C00008D4E06940F08050E9
:100F9000E061E069012600F0805000902E48016871
:100FA000C90512D40168804641F480710160FFF7E1
:100FB0001FFE074605E000BFFFF71AFEC01B6428AE
:100FC00023D8D8F80000C005F6D5206A10F4407088
:100FD00021D0A98801F4407181421CD0206A1F49A8
:100FE000012220F440700A6000220A602062C007DB
:100FF00011D0FFF7FDFD074641F2883808E000BF39
:10100000FFF7F6FDC11B414502D90320BDE8F88377
:10101000206A8007F4D5206A696820F4407008438C
:1010200020621EB1E06920F08050E06128788007DE
:1010300005D56068A96820F44040084360602878BE
:10104000C00605D56068696920F4800008436060C7
:101050000020DBE7001002400070004040044242E4
:101060002DE9F0470F46050061D0434E306800F08F
:101070000700B84209D2306820F0070038433060DA
:10108000306800F00700B84251D128683B4C810716
:1010900012D5400703D5606840F4E06060602878AE
:1010A000000703D5606840F4605060606068A9681C
:1010B00020F0F000084360602878C00728D06868F6
:1010C000012810D02168022810D0890700292EDAC3
:1010D000616821F0030101436160FFF789FD8046EB
:1010E00041F288390DE021688903EFE78901EDE7D6
:1010F000FFF77EFDA0EB0801494502D90320BDE8BA
:10110000F0876068696800F00C00B0EB810FEFD1E8
:10111000306800F00700B8420BD9306820F00700B3
:1011200038433060306800F00700B84201D0012039
:10113000E5E72878400705D56068E96820F4E060B5
:10114000084360602878000706D56068296920F4A4
:10115000605040EAC100606000F058F86168084AD9
:10116000C1F30311515CC840064908600648006895
:10117000FFF750FE0020C2E70020024000100240AE
:101180002642000828000020200000200F220260D4
:101190000C4A536803F003034360536803F0F00301
:1011A0008360536803F4E063C36052684FF4E06304
:1011B00003EAD20202610448006800F007000860F8
:1011C000704700000010024000200240044805491A
:1011D00000684968044AC1F30221515CC840704765
:1011E000280000200010024036420008044805494B
:1011F00000684968044AC1F3C221515CC840704785
:101200002800002000100240364200080E4A5168B3
:101210000E4801F00C03042B11D0082B0FD10C4801
:10122000C1F38343C903C05C0AD55168084AC1F3BE
:101230004041921E515C054A5043B0FBF1F07047AB
:1012400004494843704700000010024000127A0031
:101250001642000800093D002DE9F84F040070D047
:101260002078C04DC00749D06868C0F381000128CC
:1012700007D06868C0F38100022809D16868C003FC
:1012800006D52868800339D560680028E7D035E0A6
:101290006068B0F5803F0BD010B1B0F5A02F11D031
:1012A000286820F480302860286820F4802002E03C
:1012B000286840F480302860606890B1FFF798FC9F
:1012C00006460AE0286840F480202860F0E700BF66
:1012D000FFF78EFC801B642873D828688003F7D53D
:1012E0000CE0FFF785FC064605E000BFFFF780FC39
:1012F000801B6428F0D828688003F7D420789A4EA1
:1013000080074FF001094FF0000839D5686810F0E8
:101310000C0F07D06868C0F38100022809D1686803
:10132000C00306D42868800714D52069012808D195
:1013300010E02069B0B1C6F80090FFF759FC0746ED
:1013400005E00AE1FFF754FCC01B0228C4D8286856
:101350008007F7D52868616920F0F80040EAC100ED
:1013600028600DE0C6F80080FFF742FC074604E065
:10137000FFF73EFCC01B022823D828688007F7D45B
:10138000207800072CD57948A169D9B1C0F8009020
:10139000FFF72EFC074604E0FFF72AFCC01B0228DB
:1013A0000FD8686A8007F7D571484FF4FA51006882
:1013B000B0FBF1F0009000BF0098411E0091FAD2FE
:1013C0000EE080E0C0F80080FFF712FC074604E062
:1013D000FFF70EFCC01B022875D8686A8007F7D497
:1013E0002078400760D5E8690027C00008D4E86984
:1013F00040F08050E861E869012700F080500090DB
:101400005C480168C90513D40168834641F48071C2
:101410000160FFF7EDFB824606E000BFFFF7E8FB47
:10142000A0EB0A0064284ED8DBF80000C005F5D513
:10143000E06801280AD008B1052813D0286A20F0F6
:1014400001002862286A20F0040002E0286A40F0C7
:1014500001002862E06841F2883B98B1FFF7C8FBC1
:1014600082460BE0286A40F004002862EEE700BFE5
:10147000FFF7BEFBA0EB0A0159455AD8286A80073E
:10148000F6D50CE0FFF7B4FB824605E0FFF7B0FBB2
:10149000A0EB0A0159454CD8286A8007F6D41FB141
:1014A000E86920F08050E861E06988B36968C1F3B9
:1014B0008101022944D00228C6F8608004D0FFF7D9
:1014C00097FB044638E034E0FFF792FB074604E060
:1014D000FFF78EFBC01B02282BD828688001F7D4A9
:1014E000206AB0F5803F05D16868A16820F400301B
:1014F00008436860D4E908010843696821F474115D
:1015000008436860C6F86090FFF772FB044606E087
:1015100025E000BFFFF76CFB001B022809D82868F4
:101520008001F7D51BE000BFFFF762FB001B02281C
:1015300002D90320BDE8F88F28688001F4D40EE0BA
:101540000128F7D06868226A00F48031914204D102
:10155000616A00F47010884201D00120EAE700209F
:10156000E8E70000001002400000424280044242CE
:10157000280000200070004070B5040009D0606AA7
:10158000002540B125616561A56294F8510040B124
:101590000CE0012070BD6068B0F5827FF4D0E56199
:1015A000F2E784F85050204600F040F8022084F81A
:1015B00051002068016821F040010160A088218964
:1015C00000F4827001F404410843A18901F4006130
:1015D0000843217C01F002010843217D01F0010153
:1015E0000843218B01F400710843217F01F0380189
:1015F000084394F8201001F080010843218D01F484
:101600000051084321680860A069042101EA1040E4
:10161000216848602068C16921F40061C161656585
:10162000012084F85100002070BD000030B585B065
:1016300000240094019402940394006814498842A1
:1016400023D11448816941F480518161816901F499
:1016500080510491816941F00401816180690E4DDE
:1016600000F004000490A0200090022001900320CC
:10167000039069462846FFF7B9F94020CDE90004F8
:10168000694628460294FFF7B1F905B030BD000065
:1016900000300140001002400008014070477047D0
:1016A00010B5040003D094F83D0010B107E001200C
:1016B00010BD002084F83C00204600F01EF80220F7
:1016C00084F83D00211D206800F06AFD012084F8A7
:1016D000460084F83E0084F83F0084F8400084F817
:1016E000410084F8420084F8430084F8440084F800
:1016F000450084F83D00002010BD704790F83D1073
:10170000012901D001207047022180F83D100168B5
:10171000CA6842F00102CA6000680E4988420ED0D1
:101720000D4988420BD0B0F1804F08D00B49884258
:1017300005D00B49884202D00A49884204D1816809
:1017400001F00701062903D0016841F001010160A1
:1017500000207047002C014000340140000400408C
:1017600000080040000C0040704770B50446006857
:1017700001694FF00005C943890715D4C168C94301
:10178000890711D4E91E0161012020772068806952
:101790008007204602D0FFF7E7FF04E000F098F84A
:1017A000204600F096F8257720680169C94349076B
:1017B00017D4C168C943490713D46FF0040101610C
:1017C000022020772068806910F4407F204602D0F4
:1017D000FFF7CAFF04E000F07BF8204600F079F83C
:1017E000257720680169C943090716D4C168C94330
:1017F000090712D46FF008010161042020772068E6
:10180000C0698007204602D0FFF7AEFF04E000F079
:101810005FF8204600F05DF8257720680169C9432C
:10182000C90617D4C168C943C90613D46FF01001A3
:101830000161082020772068C06910F4407F2046AD
:1018400002D0FFF791FF04E000F042F8204600F0DC
:1018500040F8257720680169C943C90708D1C168E4
:10186000C943C90704D1891E0161204600F032F83E
:1018700020680169C943090609D4C168C94309063A
:1018800005D46FF0800101612046FFF707FF206853
:101890000169C943490609D4C168C943490605D449
:1018A0006FF040010161204600F01EF820680169D8
:1018B000C94389060BD4C168C943890607D46FF0B0
:1018C000200101612046BDE87040FFF7E8BE70BD11
:1018D0007047704700680349884201D1FFF780BA1A
:1018E00070470000001000407047704770470000CC
:1018F000F8B5016804460868CA684B6910F00F0F14
:101900004FF0000559D003F0010602F490773743F9
:1019100065D0C10705D0D10503D5616C41F0010147
:101920006164410705D5D90703D0616C41F002011C
:101930006164810705D5D90703D0616C41F00401CA
:101940006164010707D502F02001314303D0616CC7
:1019500041F008016164616C00293AD0800604D529
:10196000900602D5204600F090FC20684069616C2A
:10197000C0F38010090700D460B3204600F05EFC7D
:1019800020684069400621D52068143050E8001FC7
:1019900021F0400140E80012002AF5D1E06BA8B127
:1019A0006D494163E06BFEF727FE002811D0E06B24
:1019B000416B01B0BDE8F040084783060FD59306A0
:1019C0000DD52046BDE8F84000F05FBC2046FFF78B
:1019D0008DFFF8BD2046FFF789FF6564F8BD266BD3
:1019E0002023012E7CD1C6067AD5D60678D5086884
:1019F0004868009048694FF00206400640D5E16B08
:101A0000086840680004000CE8D0A28D8242E5D945
:101A1000E085886920282DD020680C3050E8001F10
:101A200021F4807140E80012002AF5D120681430BA
:101A300050E8001F21F0010140E80012002AF5D112
:101A40002068143050E8001F21F0400140E80012E7
:101A5000002AF5D184F84230256320680C3050E824
:101A6000001F21F0100140E80012002AF5D1E06BC0
:101A7000FEF79EFD6663A08DE18D401A81B22AE0DB
:101A8000A08DE18D401A81B2E08D0028A6D00029FA
:101A9000A4D022680C3252E8000F20F4907042E883
:101AA0000007002FF5D12068143050E8002F22F0F5
:101AB000010240E80027002FF5D184F84230256369
:101AC00020680C3050E8002F22F0100240E800237C
:101AD000002BF5D166632046FFF707FFF8BDFFE74F
:101AE00005062BD5150629D594F841002128F5D1F6
:101AF000A068B0F5805F01D12069B0B1206A411CB7
:101B00002162216800784860E08C401E0004000CCF
:101B1000E084E3D12068C16821F08001C1602068C1
:101B2000C16841F04001C160D8E7206A0088C0F375
:101B300008004860206A801C2062E5E74006CDD599
:101B40005006CBD5CA68204622F04002CA6084F80D
:101B5000413000F01AF9C1E72D22000870B50400E9
:101B600004D094F84100002510B106E0012070BDBA
:101B700084F84050204600F023F8242084F84100E7
:101B80002068C16821F40051C160204600F0DEFBEE
:101B90002068016921F4904101612068416921F0C8
:101BA0002A0141612068C16841F40051C160656447
:101BB000202084F8410084F842006563002070BD55
:101BC000F0B585B000250646009501950295039570
:101BD00000682349884241D12248816941F480410B
:101BE0008161816901F480410491816941F00401BE
:101BF000816180691C4C00F0040004904FF4007077
:101C00000090022001900320039069462046FEF7D1
:101C1000EDFE2715CDE90075694620460295FEF7D1
:101C2000E5FE134C114820601020C4E90105802016
:101C3000E06040002061C4E905752046E561FEF7DB
:101C400097FE08B1FEF778FBB46300220A21252035
:101C50006662FFF75DF92520FFF74CF905B0F0BD8E
:101C600000380140001002400008014044000240DA
:101C7000CC01002090F84230202B01D00220704788
:101C800021B11AB10023036300F0BCBB01207047EF
:101C900010B500681349884223D1134800783038C2
:101CA00008281CD2DFE800F01B040F1113151719C8
:101CB0005FF0010000F078F8BDE8104001220A4909
:101CC0000A48FFF7D7BF0220F4E70320F2E7042019
:101CD000F0E70520EEE70620ECE70720EAE7002022
:101CE000E8E710BD003801405802002084010020C0
:101CF0002DE9F843044690F841001F4616460D466C
:101D0000202802D00220BDE8F8837DB176B1002002
:101D10006064212084F84100FEF76AFFA6848046B3
:101D2000E684A068B0F5805F02D003E00120EAE716
:101D3000206910B12E4600250EE000260CE080211F
:101D4000204600F07AFBA0B9AEB116F8010B21686D
:101D50004860E08C401EE084E08C43464FF0000277
:101D600000970028EBD14FF04001204600F065FBC2
:101D700030B10320C7E735F8020BC0F30800E6E7EF
:101D8000202084F841000020BDE7704701A000F04A
:101D9000CBFBFEE7486172644661756C745F486115
:101DA0006E646C65720D0A0010B51E4C082837D29F
:101DB000DFE800F036041012191B282F0022202122
:101DC0002046FEF70FFF012201212046FEF70AFF01
:101DD000012211E0002200E0012220212046FEF72E
:101DE00001FF0022F0E7012214E001220BE00121B3
:101DF0002046FEF7F7FE00222046BDE810400221F3
:101E0000FEF7F0BE002220212046FEF7EBFE012265
:101E1000EDE7002220212046FEF7E4FE0022E6E75F
:101E20000122CCE7000C01404FF47A740120FFF747
:101E3000BBFF204600F076FC0020FFF7B5FF2046F0
:101E400000F070FCF2E700003EB500241148009459
:101E5000019402940E4984600160047304750125A5
:101E600005614FF460214460C161FEF7E5FA08B1F5
:101E7000FEF762FA0B20CDE9000569460294054899
:101E8000FEF75CFA002801D0FEF756FA3EBD0000CE
:101E900000240140A8000020094808B5416941F02C
:101EA000010141614069002200F00100009005211C
:101EB0000E20FFF72DF8BDE808400E20FFF71AB8F6
:101EC0000010024010B5184800F0BCFC174C164A30
:101ED000002120611032012000F0F4FC124A102190
:101EE00060612032084600F0EDFC0F4AA061183A0C
:101EF0000221102000F06CFC0B4AE060843A0021C3
:101F00000B4800F037FD084A2060603A002109487C
:101F100000F030FD044A60603C3A0021064800F0C1
:101F200029FDA06010BD0000E44100080000002071
:101F3000E5200008E1240008291E0008F0B585B05E
:101F4000002427480094019402940394816941F08D
:101F500010018161816901F010010491816941F0F2
:101F600004018161816901F004010491816941F0FA
:101F70000801816180691B4E00F008000122049075
:101F800011463046FEF72EFE174F01222321384618
:101F9000FEF728FE7014CDE900046946304602942D
:101FA000FEF724FD0320CDE9024001250095694696
:101FB00001953046FEF71AFDCDE9005469460B48FD
:101FC0000294FEF713FD2320CDE900050220CDE9A0
:101FD000024069463846FEF709FD05B0F0BD000035
:101FE0000010024000100140000C014000080140B8
:101FF0000D4810B50B4901600C4941600021A42235
:10200000C0E902124FF48042C0E904218161C1613C
:102010000162FEF7F3FD002803D0BDE81040FEF793
:102020008BB910BD00540040D8000020801A060073
:10203000104810B50E4901604FF4827141600021D3
:102040008160C1604FF400720161C0E9051208228D
:10205000C0E90721416281620A21C162FFF78CFA5F
:10206000002803D0BDE81040FEF766B910BD00009F
:10207000003001402C0100200C4810B50A490160D5
:102080004FF4E1314160002181600C22C160C0E960
:1020900004128161C161FFF761FD002803D0BDE832
:1020A0001040FEF749B910BD0038014084010020FE
:1020B00001A000F039FAFEE74D656D4D616E616774
:1020C000655F48616E646C65720D0A0001A000F0E6
:1020D0002BFAFEE74E4D495F48616E646C65720DE8
:1020E0000A000000012000F01DFBFBE710B55020A6
:1020F00080F31188BFF34F8FBFF36F8F01F08EFE17
:1021000018B104494FF080500860002080F3118816
:1021100010BD000004ED00E030B595B02821684600
:10212000FEF789F814210AA8FEF785F818210FA8F0
:10213000FEF781F801210804CDE900100025029581
:1021400002240491CDE907404FF4E010099068465D
:10215000FFF782F808B172B6FEE70AA90F2081E8FE
:1021600031004FF48060CDE90D0502210AA8FEF789
:1021700077FF08B172B6FEE74FF4004011900F945C
:102180000FA8FEF7F7FE002801D072B6FEE715B0E3
:1021900030BD70470148FFF7E8BA00001002002088
:1021A000F0B502681C4B1D4D1D4E1E4F1E4C4FF0CE
:1021B000804C984209D0A04207D0604505D0A84283
:1021C00003D0B04201D0B84204D122F0700E4A6868
:1021D00042EA0E02984209D0A04207D0604505D0DD
:1021E000A84203D0B04201D0B84203D122F44075D6
:1021F000CA682A434D6922F080022A4302608A6835
:10220000C2620A688262984201D0A04201D1096983
:10221000016301214161F0BD002C01400004004038
:1022200000080040000C00400034014010B5406A36
:102230000021C185C184FFF759FB10BD01680C3135
:1022400051E8002F22F4907241E80023002BF5D1D1
:102250000168143151E8002F22F0010241E8002307
:10226000002BF5D1016B012909D101680C3151E82E
:10227000002F22F0100241E80023002BF5D120218D
:1022800080F8421000210163704708B590F84210B1
:10229000222901D0022008BD82684FF480539A425F
:1022A00001D1016921B1816A9A421BD04AB10AE089
:1022B0000268816A5268C2F308020A80816A891C36
:1022C00008E0026972B10268526802F07F020A7087
:1022D000816A491C8162C18D491E0904090CC185AE
:1022E00003D01BE002685268F1E70168CA6822F077
:1022F0002002CA600168CA6822F48072CA6001685C
:102300004A6922F001024A61202180F8421000212E
:102310004163026B012A03D0FFF7BAFC002008BD1D
:10232000016301680C3151E8002F22F0100241E8EE
:102330000023002BF5D101680A68D20602D50A688D
:1023400049680091818DFFF7D0FAE7E770B5044640
:1023500000680169E26821F440511143016121697B
:10236000A0680843616908432168CA6841F20C63A8
:102370009A430243CA6020684169A26921F440710E
:10238000114341611E492068884202D1FEF72EFFA9
:1023900001E0FEF71BFF00EBC00101EB00126068DB
:1023A00064218000B2FBF0F3B3FBF1F36FF0180689
:1023B0007343B2FBF0F5B2FBF0F605EB8305322375
:1023C00003EB0515B5FBF1F5B6FBF1F605F0F005ED
:1023D00005EB0615B2FBF0F6B2FBF0F0B0FBF1F046
:1023E0006FF01802504306EB800003EB0010B0FBC7
:1023F000F1F0216800F00F002844886070BD0000F3
:102400000038014081628285C28500214164222119
:1024100080F84210016921B10168CA6842F48072F3
:10242000CA6001684A6942F001024A610068C168F5
:1024300041F02001C160002070472DE9F04198462D
:1024400017460E460446069D27E0681C25D02DB190
:10245000FEF7CEFBA0EB0800A8421ED920680C3086
:1024600050E8001F21F4D07140E80012002AF5D195
:102470002068143050E8001F21F0010140E80012EC
:10248000002AF5D1202084F8410084F84200002081
:1024900084F840000320BDE8F0812068006836EA37
:1024A000000004D00020B842CFD00020F3E7012084
:1024B000F9E700000148FFF71BBA00008401002083
:1024C00001A000F031F8FEE755736167654661755C
:1024D0006C745F48616E646C65720D0A00000000E8
:1024E000012208490848FFF7C5FB4FF47A7400BF82
:1024F00001F08EFC014605A000F016F8204600F021
:1025000011F9F5E758020020840100207854617326
:102510006B4765745469636B436F756E743A252E0F
:1025200034640D0A000000000FB4054B10B503A978
:10253000044A029800F028F810BC5DF814FB000073
:10254000DD260008A40000200907090E002804DB8E
:1025500000F1E02080F80014704700F00F0000F157
:10256000E02080F8141D704702E008C8121F08C15F
:10257000002AFAD170477047002001E001C1121F04
:10258000002AFBD1704700002DE9FF4F89B09B4620
:102590000446002506E025280BD05A460B999047A3
:1025A000641C6D1C20780028F5D10DB02846BDE8CC
:1025B000F08F0027B8460122474900E0074314F88E
:1025C000013F203B02FA03F00842F7D120782E2881
:1025D00019D114F8010F47F004072A280ED06FF024
:1025E0002F022078A0F1300109290CD808EB8801CE
:1025F00002EB410100EB0108641CF2E70A98641C3D
:1026000050F8048B0A9020780028CED0642808D097
:10261000692806D075281ED05A460B9990476D1C24
:1026200058E00A994FF00A0901C90A91002802DA14
:1026300040422D2102E0390504D52B218DF82010D0
:10264000012103E0F90704D02021F7E78A4608AE0C
:102650000DE00021FAE70A994FF00A0901C90A9131
:10266000F7E74946FDF7F2FD303106F8011D002875
:10267000F7D1ADEB060000F12009780701D44FF047
:102680000108C84502DDA8EB090000E000208046F3
:10269000002706E008A85A46C05D0B9990476D1CBC
:1026A0007F1C5745F6DB04E030205A460B999047D3
:1026B0006D1CB8F10001A8F10108F5DC05E016F881
:1026C000010B5A460B9990476D1CB9F10001A9F115
:1026D0000109F4DC641C65E70928010013B54FF615
:1026E000FF73012269460248FFF702FB00981CBDF8
:1026F00084010020FEF77CFBFFF70EFDFFF71EFCB8
:10270000FFF7CAFBFFF7B8FCFFF772FCFFF790FC7E
:10271000FFF79AFB00F020F8FFF7D4FB00F038F841
:10272000FEE7000010B5EFF3058149B9EFF3108122
:1027300031B908490968022905D1EFF3118111B1B6
:102740006FF0050403E0002408B100F0EDFE204620
:1027500010BD00007C000020EFF3058058B9EFF3B6
:10276000108040B909490868022801D030B109E059
:10277000EFF3118030B16FF0050070470120086061
:10278000002070474FF0FF30704700007C000020B1
:1027900010B5EFF3058060B9EFF3108048B90B492D
:1027A0000868022802D0012806D00BE0EFF3118060
:1027B00040B16FF0050010BD0220086000F01CFF62
:1027C000002010BD4FF0FF3010BD00007C00002045
:1027D000F8B514464FF00005EFF305826ABBEFF33E
:1027E000108252BB164A1268022A02D1EFF31182FC
:1027F0001ABB10B309B3ACB1D4E902326BB1502AA1
:102800001BD32269CAB1676900FB01F6B74214D332
:102810000025009501F03BF807E072B9226962B922
:10282000626952B9002201F00EF8050005D00CB122
:10283000216800E0002100F015FE2846F8BD0000E8
:102840007C00002070B505464FF00004EFF30580D2
:10285000A0BBEFF3108088BB19480068022802D1A2
:10286000EFF3118050BB0DB1686800E00020C10794
:1028700001D0012600E0002600071FD46DB1D5E984
:10288000021021B1502819D31EB1042002E020B15A
:1028900014E0012000F0CAFF05E00EB1042000E0C2
:1028A000012000F0B8FF040008D00DB1296800E055
:1028B000002100F0D7FD0EB144F00104204670BDA8
:1028C0007C000020F8B5144603460E464FF0000584
:1028D000EFF30580E8BBEFF31080D0BB244800681D
:1028E000022802D1EFF3118098BB93B39E423DD8EA
:1028F0004CB1A0680028E06803D0502836D30120EE
:1029000002E008B132E00020012B05D010B31846D8
:10291000A26800F060FF20E040B103200090002298
:1029200011460120A36800F0B2FF04E00322002159
:10293000012000F088FF050018D086B100231A4658
:10294000194601F01BF8012809D0284600F09EFD29
:1029500000250BE0184600F021FF050006D00CB161
:10296000216800E00021284600F07CFD2846F8BDE3
:102970007C000020F0B585B04FEA01034FF0000461
:10298000EFF305810394A1BBEFF3108189BB2149CB
:102990000968022902D1EFF3118151BB48B38026A7
:1029A00018218DF8104004AD42B3176807B13D46B9
:1029B00097691FB139467F1E382F02D21779FF075A
:1029C00002D0002005B0F0BD576907B1BE08D2F8AB
:1029D00008C0BCF1000F0DD0D4685C2C18D312696C
:1029E0003AB137B18DE806103246294601F0D7F9E1
:1029F00003900DE0D7685FB912694AB903AACDE91F
:102A00000012B2B2294601F09DF9012800D00394CA
:102A10000398D7E77C0000202DE9F041134C0F46C6
:102A2000054666692068001D00F022FC681C07D17D
:102A300037B12168BDE8F0410D48091D00F068BCC0
:102A400020683544B5424560216805D2A068BDE8DC
:102A5000F041091D00F044BC6068091D00F040FC15
:102A6000206B854200D22563BDE8F0812C00002058
:102A7000540700202DE9F041054600F055FC2D4C8F
:102A80002069401C206120682B4F10B1E06930B3F1
:102A90002BE025602069012827D1002606EB86005F
:102AA00007EB800000F00EFC761C382EF6D323488E
:102AB00000F008FC2148143000F004FC1F482830C6
:102AC00000F000FC1D483C3000F0FCFB1B4850307F
:102AD00000F0F8FB194860601430A06005E0206841
:102AE000E96AC06A884200D82560E06A401CE0625A
:102AF0006864E86AA169884200D9A06100EB80009F
:102B000007EB8000291D00F003FC00F02DFCE069BC
:102B100000280CD02068E96AC06A884207D20849B8
:102B20004FF080500860BFF34F8FBFF36F8FBDE849
:102B3000F08100002C000020A402002004070020E7
:102B400004ED00E038B500F0EFFB104CA068C8B908
:102B50000F4800F0B7FB0E48143000F0B3FB0C48F0
:102B60002060143060600A4B00202833009003F18D
:102B7000500210210A2000F08AFEA06010B105A1C9
:102B800000F070FCBDE8384000F0EEBB68000020AB
:102B900068070020546D72510000000030B4026CD0
:102BA0000B46002A0BD0C1681144C1604468A142A1
:102BB00001D30168C16030BC1846FDF723BB30BCAF
:102BC00070472DE9F041856B174604460026026CDC
:102BD00082B1C7B1E068FDF715FBE168206C091A06
:102BE000E1602268914202D26168081AE060022F17
:102BF00016D017E02068A8B9606801F073F906469E
:102C0000002060600EE0A068FDF7FCFA216CA0686F
:102C10000844A0606168884204D32068A06001E095
:102C200005B16D1E6D1CA5633046BDE8F08110B581
:102C3000044690F8590058B101280CD002280FD052
:102C4000502080F31188BFF34F8FBFF36F8FFEE7E3
:102C5000206B00F09DFB2046BDE8104000F098BBC3
:102C600010BD000010484FF44061420706D0C01D5F
:102C70000D4920F00700411AC1F540610B4A0023BD
:102C80000144C2E900030839103A21F0070111603C
:102C90004B600B600B1AC0E9001393604FF00040CB
:102CA0005360D06070470000380F00209000002073
:102CB000144E154CA6F29C474FF08058DFF84C900C
:102CC00012E000BF00F030FBF068C568281D00F07E
:102CD000CFFA2069401E2061E068401EE06000F0ED
:102CE00043FB2846FFF7A3FFE0680028EAD13868D5
:102CF0000128F9D9C9F80080BFF34F8FBFF36F8F58
:102D0000F2E70000400700202C00002004ED00E066
:102D1000002807D00021416001600B460A46C160CF
:102D200000F02CBE7047000070B51D46049C51B1E8
:102D3000C4F80020C4E90F010121204600F0DAFDAB
:102D400084F84C5070BD2460F4E72DE9F0470E463E
:102D5000DDE909841746824691009946089DA5221F
:102D6000206BFDF761FA6FF00301206B01EB870127
:102D7000084420F00707780707D0502080F3118817
:102D8000BFF34F8FBFF36F8FFEE72218315C82F8DD
:102D90003410315C11B1401C1028F6D3002684F8A1
:102DA0004360382D00D33725E562C4E91356201D52
:102DB00000F093FA04F1180000F08FFA2461C5F1D5
:102DC00038006462A061666584F858604A465146DE
:102DD000384600F03BFA2060B8F1000F01D0C8F887
:102DE0000040BDE8F087000030B5114900E0114611
:102DF0000A688242FBD34B685C18844203D1406866
:102E000018444860084643681C18944209D1084C8D
:102E1000103C2468A24209D052681A4442600A68F1
:102E200012680260814200D0086030BD0460F9E79A
:102E30009000002070B5002441600B4D006191426C
:102E400006D8D11A8269914206D2011D686807E04E
:102E50009A4203D2994201D3012403E0011D28685C
:102E600000F03EFA204670BD6800002010B5044610
:102E700000F05AFAA06B28B15FF0000400F074FA79
:102E8000204610BD0124F9E730B589B0304D55E03A
:102E90000498002806DADDE90601059A90470498AF
:102EA00000284BDB069C606910B1201D00F0E0F9A2
:102EB00002A800F0B9F8024604980A283ED2DFE8DA
:102EC00000F00505053D263705053D260598A16955
:102ED000034601442046FFF7ADFF00B3616A204678
:102EE0008847E069012829D1002000900598A16950
:102EF000002342181946204601F0FEF878B9502008
:102F000080F31188BFF34F8FBFF36F8FFEE70598F3
:102F1000A06128B1811813462046FFF78BFF0DE012
:102F2000502080F31188BFF34F8FBFF36F8FFEE700
:102F300094F82C0010B9204600F02AFA002204A9C7
:102F4000A86800F029FE0028A2D109B030BD000019
:102F5000680000202DE9FC410F46054600F090FB7B
:102F600001A800F061F80446019818B101F032F8A8
:102F7000BDE8FC81224EAFB170680068A8B300279D
:102F8000291B3A46B06800F0ADFA01F023F800289A
:102F9000EED11C494FF080500860BFF34F8FBFF354
:102FA0006F8FE5E7A542EBD801F014F830682746AB
:102FB000C068C468201D00F05BF9E069012810D1E9
:102FC000A0692B4641193A462046FFF733FF40B12E
:102FD00000200346014600902A46204601F08CF866
:102FE00020B1616A20468847C2E707E0502080F39D
:102FF0001188BFF34F8FBFF36F8FFEE70127BFE745
:103000006800002004ED00E006484168096829B125
:103010004168C968C9684968016370474FF0FF316A
:10302000FAE700002C00002070B5054600F0F0FE25
:10303000064E04463069844203D200F009F80120AC
:1030400000E0002028602046346170BD6800002048
:10305000F8B5194D1FE0C068C4680668201D00F06F
:1030600007F9616A20468847E069012813D1A06901
:103070003044B04206D924616060211D286800F008
:103080002FF908E000200346014600903246204612
:1030900001F032F838B1286801680029DBD169688D
:1030A000C5E90010F8BD502080F31188BFF34F8FA1
:1030B000BFF36F8FFEE700006800002008484068FB
:1030C000401C4FF0500080F3118804D0BFF34F8FA5
:1030D000BFF36F8FFEE7BFF34F8FBFF36F8FFEE736
:1030E00098000020074C2068016841B1C0680021A9
:1030F000D0F80000FFF72EFFFFF7C6FEF3E701212F
:103100000020F7E7680000202DE9F041044600F0B8
:103110000BF994F9455004F1240609E0606A48B1BE
:10312000304600F01FFF08B100F02CFA6D1E6DB2A2
:10313000002DF3DC4FF0FF3684F8456000F014F901
:1031400000F0F2F894F9445004F1100709E0206906
:1031500048B1384600F006FF08B100F013FA6D1EC2
:103160006DB2002DF3DC84F84460BDE8F04100F05E
:10317000FBB800002DE9F0410546002700F080FA79
:10318000314E306808B9FFF76DFDF06805424BD14C
:10319000C5B3083568070ED005F00700C0F1080078
:1031A0000544680707D0502080F31188BFF34F8F84
:1031B000BFF36F8FFEE72DB37068854234D8224885
:1031C000103001460C6801E020460C466168A942B7
:1031D00002D221680029F7D131688C4224D00768D7
:1031E0002168016060680837411B10290FD96019F8
:1031F000420708D0502080F31188BFF34F8FBFF3F0
:103200006F8FFEE710E041606560FFF7EDFD6168DC
:103210007068401A7060B268904200D2B060F06886
:1032200001430020C4E9000100F0D4FE780707D074
:10323000502080F31188BFF34F8FBFF36F8FFEE7ED
:103240003846BDE8F08100008000002010B5031F63
:103250004FF080741C601B1F21F001011960191FC1
:10326000024B0B60143940380A6010BDBD300008B5
:10327000D0E9013201699A60D0E901235A604A68B5
:10328000824201D182684A60002202610868401EC1
:103290000860086870470000034B036003F15C009E
:1032A000086080201060704780080020044B036095
:1032B00003F15C0008604FF48070106070470000FC
:1032C000DC0A002000F108014FF0FF32C0E90112D2
:1032D000C1600161002101607047002101617047F8
:1032E00030B50B685A1C02D000F1080202E00269F6
:1032F00004E02246546825689D42FAD953684B6021
:1033000099608A60516008610168491C016030BDA4
:1033100042684A6093688B60936859609160086165
:103320000168491C01607047502080F31188BFF389
:103330004F8FBFF36F8F0A494868401C48600128CF
:103340000CD10848006810F0FF0F07D0502080F320
:103350001188BFF34F8FBFF36F8FFEE770470000F8
:103360009800002004ED00E00849486828B1401E9C
:10337000486001D180F311887047502080F3118894
:10338000BFF34F8FBFF36F8FFEE700009800002060
:1033900070B5002827D0144DA0F108046168E868D2
:1033A000014207D1502080F31188BFF34F8FBFF344
:1033B0006F8FFEE722683AB1502080F31188BFF387
:1033C0004F8FBFF36F8FFEE78143616000F058F9C4
:1033D00060686968084468602046FFF705FDBDE83D
:1033E000704000F0F7BD70BD800000204FF0E0207D
:1033F00000210161816105494FF47A720968B1FBCE
:10340000F2F1491E41610721016170472800002047
:1034100010B5FCF7E1FE114910280ED300F1E020B1
:1034200090F8F0030A78904207D2502080F3118878
:10343000BFF34F8FBFF36F8FFEE7094800688968BD
:1034400000F4E060884207D9502080F31188BFF370
:103450004F8FBFF36F8FFEE710BD00009800002074
:103460000CED00E010B5084B002200BF53F83240CD
:103470001CB1521C082AF9D310BD43F8321003EBDB
:10348000C201486010BD00006402002010B50400B5
:103490000AD000F013F894F8460000280CD120461A
:1034A000BDE81040FFF774BF502080F31188BFF3D0
:1034B0004F8FBFF36F8FFEE710BD0000084A002159
:1034C00002EBC1035B68834206D1002042F8310061
:1034D00002EBC10148607047491C0829F0D37047CE
:1034E0006402002070B515460E460446FFF71CFF27
:1034F00094F944100020491C01D184F8440094F947
:103500004510491C01D184F84500FFF72DFFA06B41
:1035100028B92A46314604F1240000F051F820462B
:10352000BDE87040FFF7F0BD10B5020014D00F48A1
:10353000806B38B1502080F31188BFF34F8FBFF3F9
:103540006F8FFEE700F09CF800211046FFF764FA49
:1035500000F040FD002807D105494FF08050086079
:10356000BFF34F8FBFF36F8F10BD00002C00002002
:1035700004ED00E002498A6A0260496941607047CF
:103580002C00002001490120486270472C000020D7
:1035900010B50C4650B1094909681831FFF7A0FE73
:1035A0002046BDE810400121FFF736BA502080F3D5
:1035B0001188BFF34F8FBFF36F8FFEE72C00002001
:1035C00070B514460D4668B10A4909681831FFF70D
:1035D0009FFE0CB14FF0FF3521462846BDE87040F4
:1035E000FFF71ABA502080F31188BFF34F8FBFF353
:1035F0006F8FFEE72C00002030B587B000240394C5
:1036000005AA04A903A80494FFF746FEDDE9030117
:103610000094CDE90110002315A11748059A00F088
:10362000BEFB164D002868631FD000F035FD012851
:1036300009D0401C19D1502080F31188BFF34F8F5F
:10364000BFF36F8FFEE7502080F31188BFF34F8FD9
:10365000BFF36F8F4FF0FF3028630120E8616C618A
:1036600007B0BDE8304000F045B807B030BD0000FD
:1036700049444C4500000000B12C00082C000020FB
:103680000248816B491C8163704700002C000020B8
:10369000164810B5816B11B10121416210BD0021A6
:1036A00041628169124A01E0B9B1491E01EB81030F
:1036B00052F82330002BF7D001EB810302EB830299
:1036C00002F1080453685B685360A34201D15B6850
:1036D0005360DA680260816110BD502080F3118868
:1036E000BFF34F8FBFF36F8FFEE700002C00002069
:1036F000A40200201CB5264908780190FF2008701C
:1037000008788DF800009DF800009DF8002000F07A
:10371000F000904207D0502080F31188BFF34F8F04
:10372000BFF36F8FFEE79DF800001A4B00F05000CA
:1037300018700720986005E09DF8002052008DF871
:103740000020401E9DF800201206F5D49860032842
:1037500007D0502080F31188BFF34F8FBFF36F8FD6
:10376000FEE74FF440709860019808700A480168BD
:1037700041F470010160016841F070410160FFF7A0
:1037800035FE00205860FCF7F1FC00201CBD000055
:1037900000E400E09800002020ED00E010B50C46A9
:1037A00048B184420FD9502080F31188BFF34F8F66
:1037B000BFF36F8FFEE7502080F31188BFF34F8F68
:1037C000BFF36F8FFEE70222002100F03CF80028D3
:1037D00000D0846310BD38B50C4648B184420FD97F
:1037E000502080F31188BFF34F8FBFF36F8FFEE738
:1037F000502080F31188BFF34F8FBFF36F8FFEE728
:103800000221134600220091114600F040F80028E2
:1038100000D0846338BD10B502460021012000F0BD
:1038200012F80446FFF774FA204610BD38B50B466F
:10383000002200901146012000F029F80446FFF70D
:1038400067FA204638BDF8B517460E46050014D075
:10385000DEB105FB06F05030FFF78CFC04000AD007
:10386000002084F8460004F150023B4631462846C9
:103870000094FFF759FA2046F8BD502080F31188D4
:10388000BFF34F8FBFF36F8FFEE70020E3E738B53C
:10389000049D18B153B1CAB181B120E0502080F32A
:1038A0001188BFF34F8FBFF36F8FFEE7502080F377
:1038B0001188BFF34F8FBFF36F8FFEE7502080F367
:1038C0001188BFF34F8FBFF36F8FFEE739B15020E0
:1038D00080F31188BFF34F8FBFF36F8FFEE7502443
:1038E0001C46012384F846302B460094FFF71CFA4F
:1038F000204638BD70B50D46040025D0FFF714FDF5
:10390000D4E90F20216802FB001161600021A1634E
:103910002168A1600A46D4E90F01401E00FB012185
:10392000E16021464FF0FF3001F8440F487004F188
:1039300010008DB1FFF7C6FC04F12400FFF7C2FCB4
:10394000FFF712FD012070BD502080F31188BFF3F6
:103950004F8FBFF36F8FFEE721690029F0D000F091
:1039600001FB0028ECD004494FF080500860BFF301
:103970004F8FBFF36F8FE3E704ED00E02DE9FF47C2
:1039800082B01D468A464FF00008040003D0BAF109
:10399000000F08D011E0502080F31188BFF34F8F43
:1039A000BFF36F8FFEE7206C38B1502080F3118891
:1039B000BFF34F8FBFF36F8FFEE7022D0AD1E06B8D
:1039C000012807D0502080F31188BFF34F8FBFF339
:1039D0006F8FFEE700F00EFA3F4F4FF000094FF0F7
:1039E000805648B9049838B1502080F31188BFF34D
:1039F0004F8FBFF36F8FFEE7FFF796FCA06BE16B75
:103A0000884207D3022D05D00498D0B1B8F1000F39
:103A10001AD01EE02A4651462046FFF7D2F8616AC6
:103A200019B104F1240000F09DFA20B13E60BFF30B
:103A30004F8FBFF36F8FFFF797FC012006B0BDE8F3
:103A4000F087FFF791FC22E06846FFF793FD4FF007
:103A50000108FFF789FCFFF713FEFFF765FC94F9F7
:103A60004400401C01D184F8449094F94500401C66
:103A700001D184F84590FFF777FC04A9684600F06F
:103A800027F930B12046FFF73FFB00F0A3FA0020F2
:103A9000D4E7FFF749FCA06BE16B884213D1FFF735
:103AA00063FC04F110000499FFF772FD2046FFF754
:103AB0002BFB00F08FFA00289ED13E60BFF34F8FA2
:103AC000BFF36F8F98E7FFF74FFC2046FFF71CFB13
:103AD00000F080FA90E7000004ED00E02DE9F047E7
:103AE0001F4690468946040003D0B9F1000F08D064
:103AF00011E0502080F31188BFF34F8FBFF36F8F19
:103B0000FEE7206C38B1502080F31188BFF34F8F4F
:103B1000BFF36F8FFEE7022F0AD1E06B012807D0B9
:103B2000502080F31188BFF34F8FBFF36F8FFEE7F4
:103B3000FFF76EFC5020EFF3118680F31188BFF37E
:103B40004F8FBFF36F8FA06BE16B884206D3022FBC
:103B500004D0002086F31188BDE8F08794F9455021
:103B60003A4649462046FFF72CF8681C04D06D1CE5
:103B700084F845500120EDE7606A0028FAD004F18E
:103B8000240000F0EFF90028F4D0B8F1000FF1D0D4
:103B90000121C8F80010EDE72DE9F747002683B0B2
:103BA0008A46040003D0BAF1000F08D011E050207B
:103BB00080F31188BFF34F8FBFF36F8FFEE7206C48
:103BC00038B1502080F31188BFF34F8FBFF36F8F50
:103BD000FEE700F00FF9DFF8F4804FF000094FF036
:103BE000805748B9059838B1502080F31188BFF349
:103BF0004F8FBFF36F8FFEE7FFF796FBA56BC5B145
:103C000051462046FEF7CAFF6D1EA563206950B1DC
:103C100004F1100000F0A6F928B1C8F80070BFF355
:103C20004F8FBFF36F8FFFF79FFB012006B0BDE8FA
:103C3000F087059808B11EB106E0FFF795FB27E075
:103C40006846FFF797FC0126FFF78EFBFFF718FD8C
:103C5000FFF76AFB94F94400401C01D184F84490BA
:103C600094F94500401C01D184F84590FFF77CFB96
:103C700005A9684600F02CF8002820460AD0FFF776
:103C800043FA00F0A7F92046FFF7F0F80028B3D078
:103C90000020CBE7FFF7EAF890B104F12400059982
:103CA000FFF776FC2046FFF72FFA00F093F9002883
:103CB000A2D1C8F80070BFF34F8FBFF36F8F9BE79F
:103CC0002046FFF721FA00F085F995E704ED00E0C2
:103CD0002DE9F0410C46050011D0C4B1FFF724FBDB
:103CE000174B5A696E682068911B471C17D02F68C4
:103CF0009B6A9F4219D0964217D8012410E05020A9
:103D000080F31188BFF34F8FBFF36F8FFEE7502012
:103D100080F31188BFF34F8FBFF36F8FFEE700244E
:103D2000FFF722FB2046BDE8F081884205D9401A02
:103D300020602846FFF71EFCF1E700202060DCE74A
:103D40002C0000202DE9FF5F8346DDE90E879946B0
:103D500016468A469000FFF70DFA05001CD05C203D
:103D6000FFF708FA040014D00020256384F85900F6
:103D7000CDE90240CDE900874B46324651465846D0
:103D8000FEF7E3FF2046FEF775FE012004B0BDE814
:103D9000F09F2846FFF7FCFA4FF0FF30F6E7F0B54A
:103DA00085B0DDE90B640A9DA6B1DCB15C27009704
:103DB0002663022684F85960002604AFCDE9024646
:103DC000CDE90057FEF7C1FF2046FEF753FE0498E9
:103DD00005B0F0BD502080F31188BFF34F8FBFF3C3
:103DE0006F8FFEE7502080F31188BFF34F8FBFF332
:103DF0006F8FFEE70548C16919B1806B18B10020CB
:103E00007047012070470220704700002C000020FE
:103E100001484069704700002C0000202DE9F04166
:103E20002E4C0027A06B40B1206A401C2062606AC3
:103E300000B101273846BDE8F0816669761C6661ED
:103E400013D16068006838B1502080F31188BFF347
:103E50004F8FBFF36F8FFEE76068A1686160A0605D
:103E6000A06A401CA062FFF7CFF8206BDFF87080DB
:103E7000864209D36068006880B16068C068C56820
:103E8000686886420DD220632068C06A00EB80011A
:103E900058F821000128CAD90127C8E74FF0FF30A0
:103EA000F1E7281DFFF7E4F9A86A18B105F1180039
:103EB000FFF7DEF9E86AA169884200D9A06100EB4A
:103EC000800108EB8100291DFFF722FAE86A2168CA
:103ED000C96A8842CED30127CCE700002C0000201D
:103EE000A402002070B504004FF0000133D01B4D38
:103EF0002868844207D0502080F31188BFF34F8F89
:103F0000BFF36F8FFEE7206D38B1401E2065E36C74
:103F1000E26A9A421FD040B11DE0502080F3118820
:103F2000BFF34F8FBFF36F8FFEE7201DFFF7A0F9A0
:103F3000E06CE062C0F13800A061E06AA9698842E3
:103F400000D9A861064900EB800001EB8000211D2B
:103F5000FFF7DEF90121084670BD00002C000020AB
:103F6000A402002070B5C068C46854B104F1180000
:103F70000646FFF77DF9144DA86B50B13146134842
:103F800015E0502080F31188BFF34F8FBFF36F8F80
:103F9000FEE7201DFFF76CF9E06AA969884200D9A5
:103FA000A8610B4900EB800001EB8000211DFFF7A9
:103FB000AFF9E06A2968C96A884202D901206862BB
:103FC00070BD002070BD00002C0000202C070020D8
:103FD000A40200202DE9F0472C4D00242746A86BB1
:103FE00038B1FFF7A1F9A86B401EA863A86B40B1D8
:103FF00046E0502080F31188BFF34F8FBFF36F8FDF
:10400000FEE72969224E0120D1B3A6F591698046C9
:104010003068E0B1F068C46804F11800FFF728F9CF
:10402000201DFFF725F9E06AA969884200D9A86137
:1040300000EB800109EB8100211DFFF769F9E06ABF
:104040002968C96A8842E3D3C5F82480E0E70CB147
:10405000FEF7DAFF2C6A4CB14FEA0806FFF7DEFEE6
:1040600000B16E62641EF9D100202862686A38B11E
:104070000849012738070860BFF34F8FBFF36F8FE0
:10408000FFF772F93846BDE8F08700002C000020E9
:104090002C07002004ED00E010B586B0FEF752FDBD
:1040A000114CA068B8B100200390049005AA04A99F
:1040B00003A8FFF7FBF8DDE9032102208DE80700E4
:1040C00000230AA10B48059AFFF769FEE06010B1D2
:1040D00006B0012010BD502080F31188BFF34F8F30
:1040E000BFF36F8FFEE7000068000020546D722060
:1040F00053766300E53000082DE9FF411E46134664
:1041000002000A9D4FF0000016D0144CA768002F43
:104110000FD0CDE900130292062917DAFFF76AFEE5
:1041200002284FF000030FD000226946A068FFF775
:1041300025FC04B0BDE8F081502080F31188BFF366
:104140004F8FBFF36F8FFEE72A46EEE7002332461C
:1041500069463846FFF7C2FCEBE700006800002024
:104160009042000800000000000000000000000075
:104170000000000000020000180000000000000025
:104180000000000084420008000000000000000061
:104190000000000000000000000200000800000015
:1041A000000000000000000078420008000000004D
:1041B00000000000000000000000000000020000FD
:1041C000080000000000000000000000404200085D
:1041D00000000000000000000000000000000000DF
:1041E000000000006C420008000000000000000019
:1041F000000000005C420008000000000000000019
:10420000000000004C420008000000000000000018
:1042100000000000010202030405060708090A0B5A
:104220000C0D0E0F10100000000000000000010235
:10423000030406070809000000000102030400004F
:104240006D79517565756530310000006D79436F8A
:10425000756E74696E6753656D3031006D794269B2
:104260006E61727953656D30310000006D794D7566
:1042700074657830310000004C45445F5461736BC5
:104280000000000055736172745F5461736B00002D
:1042900064656661756C745461736B00BC420008A0
:1042A00000000020A8000000682500086443000802
:1042B000A8000020901E00007825000800000000E3
:1042C00000000000000000000000000000000000EE
:1042D00000000000000000000100000010000000CD
:1042E000000000000024F4000000000000000000B6
:1042F00000000000000000000000000000000000BE
:1043000000000000000000000000000000000000AD
:10431000000000000000000000000000000000009D
:10432000000000000000000000000000000000008D
:10433000000000000000000000000000000000007D
:10434000000000000000000000000000000000006D
:104350000000000000000000AAAAAAAA00000000B5
:044360000000000059
:0400000508000131BD
:00000001FF
