:020000040800F2
:100000001807002049010008E51F000879190008B9
:10001000C91F000859020008292300080000000039
:10002000000000000000000000000000192000088F
:100030007502000800000000FD1F000831200008C4
:100040006301000863010008630100086301000800
:1000500063010008630100086301000863010008F0
:1000600063010008630100086301000863010008E0
:1000700063010008630100086301000863010008D0
:1000800063010008630100086301000863010008C0
:1000900063010008630100086301000863010008B0
:1000A00063010008630100086301000863010008A0
:1000B0006301000863010008630100086301000890
:1000C0006301000863010008630100086301000880
:1000D000630100081D230008630100086301000894
:1000E0006301000863010008630100086301000860
:1000F0006301000863010008630100086301000850
:10010000630100086301000863010008630100083F
:10011000630100086301000863010008630100082F
:10012000630100086301000863010008630100081F
:10013000DFF810D000F06EF8004800478126000874
:10014000AFF30080180700200648804706480047A4
:10015000FEE7FEE7FEE7FEE7FEE7FEE7FEE7FEE777
:10016000FEE7FEE79320000831010008202A04DBA7
:10017000203A21FA02F00021704721FA02F3D04020
:10018000C2F120029140084319467047D2B201E003
:1001900000F8012B491EFBD270470022F6E710B58C
:1001A00013460A4604461946FFF7F0FF204610BDE5
:1001B0002DE9F05F0546002092469B46884606469C
:1001C000814640241BE02846414647462246FFF729
:1001D000CDFF53465A46C01A914110D311461846D6
:1001E000224600F029F82D1A67EB01084F462246F7
:1001F0000120002100F020F817EB00094E41201EDD
:10020000A4F10104DFDC484631462A464346BDE8F6
:10021000F09F0000064C074D06E0E06840F0010347
:1002200094E8070098471034AC42F6D3FFF784FFF8
:100230007427000894270008202A04DB203A00FADB
:1002400002F1002070479140C2F1200320FA03F32D
:10025000194390407047000001A002F075F8FEE7D6
:100260004275734661756C745F48616E646C65724B
:100270000D0A000001A002F067B800004465627535
:10028000674D6F6E5F48616E646C65720D0A0000A9
:100290002DE9F04104460E46002014F0070102F05B
:1002A0000703C1F10807C2F3C70598460FD07DB117
:1002B000D11BC1F3C70501F007084FB33A463146D9
:1002C000204602F029FAE1198CB23E4420E04DB9F3
:1002D0001A460FE008223146204602F01DFA083483
:1002E000A4B208366D1EEDB2F4D200BFB8F1000121
:1002F00012D00A4631462046BDE8F04102F00CBA61
:1003000008223146204602F007FA0834A4B2083623
:100310006D1EEDB2F4D2E9E7BDE8F0810EB54FF401
:1003200096738DE80E0002460123A021014800F0DB
:1003300055FB0EBD1400002072B6FEE710B590F814
:1003400021100022022905D00421816380F8202099
:10035000012010BD01680B6823F00E030B600168DB
:100360000B6823F001030B6090F84030C46B01214F
:1003700001FA03F3636080F8211080F82020104612
:1003800010BD00002DE9F05F90F821100024022933
:1003900003D004218163012485E001680A6822F00A
:1003A0000E020A6001680A6822F001020A603F4EEC
:1003B0003E4FB215DFF8F4C0DFF8F090DFF8ECA0A4
:1003C000DFF8E8B0DFF8E4E00168783F13011502D8
:1003D000ACF1640CA9F15009AAF13C0AABF1280B6D
:1003E000AEF1140E4FF48018B14227D9B9420ED0A5
:1003F000614512D049451DD0514518D0594518D0F6
:10040000714501D1424615E0294EB14201D1012288
:1004100010E0274E1436B14201D110220AE0244EDA
:100420002836B14206D0224A3C32914201D11A46C6
:1004300000E02A461E49091F0A602BE0B94213D08A
:10044000614517D0494522D051451DD059451DD091
:10045000714501D142461AE0B14202D14FF080729B
:1004600015E0134EB14201D1012210E0104E1436B6
:10047000B14201D110220AE00D4E2836B14206D019
:100480000B4A3C32914201D11A4600E02A46074904
:1004900080394A60012180F82110002180F8201065
:1004A000416B01B188472046BDE8F09F80000240C3
:1004B0000804024070B5044600F010F90546601CBF
:1004C00002D004480078044400F008F9401BA04220
:1004D000FAD370BD000000202DE9F84FDFF8C89175
:1004E0000024A9F1040B23460F2709F1040AABF1FC
:1004F000040ED1E00125A54006EA0502AA4276D104
:10050000DFF8A8C14E68A6EB0C0866452BD00DDCC1
:10051000032E34D005DC36B3012E19D0022E2FD194
:100520001BE0112E16D0122E2AD119E0B8F5881F23
:1005300019D006DCB8F5803F15D0B8F5801F1FD163
:1005400011E0B8F5001F0ED0B8F5041F18D10AE06D
:10055000CB6815E0CB681B1D12E0CB6808330FE0B9
:10056000CB680C330CE08B682BB1012B4FF00803E8
:1005700003D0456104E0042302E0056100E00023AC
:10058000FF2A01D8064601E000F104064FEA84057F
:1005900001D9A5F12005D6F8008007FA05FC28EA64
:1005A0000C0803FA05F548EA0508C6F800804D680E
:1005B000ED0070D53E4DAE6946F00106AE61AD6905
:1005C00024F0030605F0010500953A4D06EB050CF5
:1005D000DCF80850A607360F07FA06F825EA0805E2
:1005E000DFF8D480404503D14FF0000825E052E009
:1005F000DFF8C880404502D14FF001081DE0DFF868
:10060000C080404502D14FF0020816E0DFF8B48008
:10061000404502D14FF003080FE0DFF8AC804045C1
:1006200002D14FF0040808E0DFF8A080404502D175
:100630004FF0050801E04FF0060808FA06F848EA0E
:100640000508CCF808804D68D9F80060ED024D46E9
:1006500001D5164300E096432E604D68DAF800603D
:10066000AD02554601D5164300E096432E604D6815
:10067000DBF80060AD035D4601D5164300E096430C
:100680002E604D68DEF80060ED03754601D5164317
:1006900000E096432E60641C0A681646E2407FF430
:1006A00029AFBDE8F88F00000804014000001110D8
:1006B000001002400000014000080140000C014011
:1006C000001001400014014000180140001C0140CE
:1006D0000AB1016170470904FBE700000148806826
:1006E000704700000000002070B5040025D094F889
:1006F0003D00002520B984F83C50204600F02EFB38
:10070000242084F83D002068016821F00101016087
:100710002068016841F4004101602068016821F40B
:100720000041016000F076FC4D4A6168914201D8B9
:100730004C4900E04C49884201D2012070BD4B4930
:100740002368B0FBF1F15E6826F03F060E435E6061
:100750006368934206D94FF4967359434FF47A7302
:10076000B1FBF3F12368491C1E6A26F03F063143B2
:1007700019626168914210D84900401EB0FBF1F245
:10078000521CC2F30B02042A01D2042022E0B0FB67
:10079000F1F0401CC0F30B001CE0A268F2B301EBC7
:1007A000C10303EB0116431EB3FBF6F35B1C43F4DA
:1007B00080431B0549D092B301EBC10202EB01114A
:1007C000401EB0FBF1F0401CC0F30B0040F4804031
:1007D00040F400402168CA694CF6FF739A43104305
:1007E000C861D4E9071001432068026822F0C00202
:1007F00011430160D4E9030101432068826848F293
:10080000FF339A4311438160D4E90501084321680D
:10081000CA6822F0FF021043C86001E00EE016E053
:100820002068016841F0010101602564202084F8FE
:100830003D00256384F83E50002070BD01EB410669
:10084000431EB3FBF6F35B1CB3E70120C2E701EBE9
:100850004101401EB0FBF1F0401CC0F30B00B7E7B4
:10086000A086010080841E0000093D0040420F0068
:100870002DE9FF4F81B089460446FFF72FFF05465B
:1008800094F83D004FF0000820287DD11923012263
:1008900050492046009501F093F9002874D194F84E
:1008A0003C00012870D0012084F83C0020680168D9
:1008B000C90703D1016841F00101016020680168A6
:1008C00021F400610160242084F83D0000262664A4
:1008D0004148E0624FF0011B20272068016841F485
:1008E000807101600095002259462046049B01F06A
:1008F00067F950B120680068C00502D54FF4007058
:100900002064032005B0BDE8F08F216809F0FE00E7
:100910000861FFF7E3FE2168054648694969C0F3AD
:100920004000C1F380214FF0A00A0FE0FFF7D6FE90
:10093000411B0498814200D808B984F83DA0216881
:1009400048694969C0F34000C1F3802194F83D2013
:10095000A02A02D008B90029E8D084F83D702068A8
:100960004169C943890716D4016841F400710160E7
:1009700020684169806919230122164920460095A3
:1009800001F01EF9B8B900E021E084F83D7084F868
:100990003C600020B6E7016841F400710160216805
:1009A0006FF480604861192301220A4920460095AE
:1009B00001F006F908B10120A4E7039808F1010845
:1009C00080458AD384F83D7084F83C60F3E70220C8
:1009D00098E70000020010000000FFFF2DE9FF4F24
:1009E00083B00025DDE910799A4693460446DDF888
:1009F00048800095FFF772FE064694F83D002028D7
:100A00007CD11923012285492046009601F0D8F8AF
:100A10000028F5D194F83C0001286FD0012084F81B
:100A20003C0020680168C90703D1016841F0010159
:100A300001602068016821F400610160222084F8CF
:100A40003D00402084F83E0025646762A4F82A90A7
:100A5000608D20857248E062CDE9008653465A4693
:100A60002046049900F0AEFF00287DD1208DDFF8EC
:100A7000B491202768B1012814D0022820680168A9
:100A80001ED041F480610160206841698069009056
:100A9000B6E02068416981690091016841F4007104
:100AA0000160ADE02068016821F48061016072B6E8
:100AB0002068416981690091016841F400710AE090
:100AC00041F40061016072B620684169816900915A
:100AD000016821F48061016062B691E0032868D862
:100AE00001280CD0022843464FF000024946204618
:100AF00000960FD001F064F8B0BB10E08BE03246F6
:100B00004146204601F002F970BB20680069616A25
:100B100008706CE001F054F830BB72B634E0206825
:100B2000016821F48061016072B620680069616A21
:100B30000870606A401C6062208D401E2085608DB8
:100B4000401E6085384846F2A8110068B0FBF1F0FD
:100B5000C0EBC00000EB80000090401E009008D069
:100B600020684069C04300E029E040070CD50098A8
:100B7000F3E744F8305F6773A573206940F0200005
:100B8000206162B625731AE02068016841F40071A3
:100B9000016020680069616A0870606A401C6062D8
:100BA000218D491E2185618D491E618562B62168AE
:100BB0001BE032464146204601F0A8F818B101205A
:100BC00007B0BDE8F08F20680069616A0870606A4C
:100BD000401C6062218D491E2185618D491E618501
:100BE00021684A69D24352070AD409690170606AD0
:100BF000401C6062208D401E2085608D401E6085F7
:100C0000208D00287FF46AAF84F83D7084F83E5050
:100C100084F83C50D4E70220D2E700000200100024
:100C20000000FFFF040001000C0000202DE9FF4F31
:100C300083B09A46DDE9119793460446DDF840807B
:100C4000FFF74CFD054694F83D0020287FD119237D
:100C5000012240492046009500F0B2FF002876D1DD
:100C600094F83C00012872D0012084F83C002068F0
:100C70000168C90703D1016841F0010101602068E2
:100C8000016821F400610160212084F83D004020CA
:100C900084F83E0000262664C4F82480A4F82A9034
:100CA000608D20852C48E062CDE9007553465A4698
:100CB0002046049900F004FF70B930E02A46394616
:100CC000204601F05BF858B1206C042804D120685C
:100CD000016841F400710160012007B0BDE8F08FA8
:100CE000606A216800780861606A401C6062218D3A
:100CF000491E89B22185628D521E62852268536920
:100D0000DB435B070BD469B100781061606A401C5B
:100D10006062208D401E2085608D401E6085208D84
:100D20000028CBD12A463946204600F01DFF002876
:100D3000CAD154F83D0B016841F4007101602020D4
:100D400004F81E09E67766770020C6E7FFE7022071
:100D5000C3E70000020010000000FFFF10B586B0DE
:100D60000021009101910291039100680F4988428E
:100D70001AD10F4CA06940F00800A061A069694633
:100D800000F008000490C020009012200190032081
:100D900003900848FFF7A0FBE06940F40010E06111
:100DA000E06900F40010049006B010BD005400404B
:100DB00000100240000C0140024881680278114492
:100DC0008160704700000020074810B5016841F0BD
:100DD00010010160032000F075F80F2000F006F804
:100DE00000F024F8002010BD0020024070B50D4D29
:100DF00004464FF47A712878B1FBF0F00A4909688B
:100E0000B1FBF0F000F06EFB48B9102C07D20022C5
:100E10002146501E00F036F800206C6070BD0120A5
:100E200070BD0000000000200C0000200C4808B538
:100E3000816941F001018161816901F00101009145
:100E4000C16941F08051C161C06900F080500090DB
:100E50000448416821F0E06141F00071416008BD43
:100E60000010024000000140002809DB00F01F02D2
:100E7000012191404009800000F1E020C0F80011FC
:100E800070470000F0B40E4B1B680C46C3F30223FE
:100E9000C3F10705042D00D90425191D072901D226
:100EA000002300E0DB1E012606FA05F1491E214061
:100EB00099409E40761E16403143F0BC01F054BA72
:100EC0000CED00E0064900F0070208684FF6FF034A
:100ED000184040EA0220034A1043086070470000AF
:100EE0000CED00E00000FA052DE9F0470F46050083
:100EF00061D0434E306800F00700B84209D2306834
:100F000020F0070038433060306800F00700B84236
:100F100051D128683B4C810712D5400703D5606842
:100F200040F4E06060602878000703D5606840F412
:100F3000605060606068A96820F0F000084360605D
:100F40002878C00728D06868012810D021680228B6
:100F500010D0890700292EDA616821F003010143CE
:100F60006160FFF7BBFB804641F288390DE02168E4
:100F70008903EFE78901EDE7FFF7B0FBA0EB08017C
:100F8000494502D90320BDE8F0876068696800F030
:100F90000C00B0EB810FEFD1306800F00700B842D1
:100FA0000BD9306820F0070038433060306800F01B
:100FB0000700B84201D00120E5E72878400705D5B1
:100FC0006068E96820F4E060084360602878000702
:100FD00006D56068296920F4605040EAC10060606D
:100FE00000F038F86168084AC1F30311515CC84049
:100FF0000649086006480068FFF7F8FE0020C2E7CF
:1010000000200240001002405A2700080C00002077
:10101000040000200448054900684968044AC1F3F7
:101020000221515CC84070470C00002000100240B3
:101030006A2700080448054900684968044AC1F362
:10104000C221515CC84070470C00002000100240D3
:101050006A2700080E4A51680E4801F00C03042B61
:1010600011D0082B0FD10C48C1F38343C903C05CD6
:101070000AD55168084AC1F34041921E515C054AA5
:101080005043B0FBF1F070470449484370470000FB
:101090000010024000127A004A27000800093D00B3
:1010A0002DE9F84F040070D02078C04DC00749D01A
:1010B0006868C0F38100012807D06868C0F3810028
:1010C000022809D16868C00306D52868800339D58D
:1010D00060680028E7D035E06068B0F5803F0BD04D
:1010E00010B1B0F5A02F11D0286820F4803028600E
:1010F000286820F4802002E0286840F480302860CE
:10110000606890B1FFF7EAFA06460AE0286840F402
:1011100080202860F0E700BFFFF7E0FA801B64281A
:1011200073D828688003F7D50CE0FFF7D7FA064696
:1011300005E000BFFFF7D2FA801B6428F0D82868CA
:101140008003F7D420789A4E80074FF001094FF0C2
:10115000000839D5686810F00C0F07D06868C0F334
:101160008100022809D16868C00306D42868800776
:1011700014D52069012808D110E02069B0B1C6F863
:101180000090FFF7ABFA074605E00AE1FFF7A6FA81
:10119000C01B0228C4D828688007F7D52868616971
:1011A00020F0F80040EAC10028600DE0C6F8008099
:1011B000FFF794FA074604E0FFF790FAC01B0228F5
:1011C00023D828688007F7D4207800072CD57948E1
:1011D000A169D9B1C0F80090FFF780FA074604E092
:1011E000FFF77CFAC01B02280FD8686A8007F7D582
:1011F00071484FF4FA510068B0FBF1F0009000BF65
:101200000098411E0091FAD20EE080E0C0F8008004
:10121000FFF764FA074604E0FFF760FAC01B0228F4
:1012200075D8686A8007F7D42078400760D5E869E8
:101230000027C00008D4E86940F08050E861E86900
:10124000012700F0805000905C480168C90513D464
:101250000168834641F480710160FFF73FFA8246DE
:1012600006E000BFFFF73AFAA0EB0A0064284ED868
:10127000DBF80000C005F5D5E06801280AD008B108
:10128000052813D0286A20F001002862286A20F07F
:10129000040002E0286A40F001002862E06841F2A0
:1012A000883B98B1FFF71AFA82460BE0286A40F0B3
:1012B00004002862EEE700BFFFF710FAA0EB0A0176
:1012C00059455AD8286A8007F6D50CE0FFF706FA88
:1012D000824605E0FFF702FAA0EB0A0159454CD817
:1012E000286A8007F6D41FB1E86920F08050E861D1
:1012F000E06988B36968C1F38101022944D00228FA
:10130000C6F8608004D0FFF7E9F9044638E034E01D
:10131000FFF7E4F9074604E0FFF7E0F9C01B0228F5
:101320002BD828688001F7D4206AB0F5803F05D11A
:101330006868A16820F4003008436860D4E90801B7
:101340000843696821F4741108436860C6F8609026
:10135000FFF7C4F9044606E025E000BFFFF7BEF939
:10136000001B022809D828688001F7D51BE000BFC0
:10137000FFF7B4F9001B022802D90320BDE8F88F5B
:1013800028688001F4D40EE00128F7D06868226A4A
:1013900000F48031914204D1616A00F470108842F7
:1013A00001D00120EAE70020E8E700000010024039
:1013B00000004242800442420C00002000700040C5
:1013C00070B5040009D0606A002540B125616561EF
:1013D000A56294F8510040B10CE0012070BD606836
:1013E000B0F5827FF4D0E561F2E784F850502046F2
:1013F00000F040F8022084F851002068016821F0D4
:1014000040010160A088218900F4827001F4044148
:101410000843A18901F400610843217C01F0020125
:101420000843217D01F001010843218B01F4007183
:101430000843217F01F03801084394F8201001F09F
:1014400080010843218D01F40051084321680860A0
:10145000A069042101EA1040216848602068C16940
:1014600021F40061C1616565012084F8510000200C
:1014700070BD000030B585B0002400940194029442
:10148000039400681449884223D11448816941F4C7
:1014900080518161816901F480510491816941F039
:1014A0000401816180690E4D00F004000490A020C9
:1014B0000090022001900320039069462846FFF720
:1014C0000BF84020CDE90004694628460294FFF756
:1014D00003F805B030BD00000030014000100240AC
:1014E0000008014010B5401EB0F1807F01D30120FB
:1014F00010BD4FF0E02460610F21601700F034FF51
:101500000020A06107202061002010BD70477047B7
:10151000F8B5016804460868CA684B6910F00F0FF7
:101520004FF0000559D003F0010602F490773743DD
:1015300065D0C10705D0D10503D5616C41F001012B
:101540006164410705D5D90703D0616C41F0020100
:101550006164810705D5D90703D0616C41F00401AE
:101560006164010707D502F02001314303D0616CAB
:1015700041F008016164616C00293AD0800604D50D
:10158000900602D5204600F0B4FD20684069616CE9
:10159000C0F38010090700D460B3204600F082FD3C
:1015A00020684069400621D52068143050E8001FAB
:1015B00021F0400140E80012002AF5D1E06BA8B10B
:1015C0006D494163E06BFEF7DDFE002811D0E06B52
:1015D000416B01B0BDE8F040084783060FD5930684
:1015E0000DD52046BDE8F84000F083BD2046FFF74A
:1015F0008EFFF8BD2046FFF78AFF6564F8BD266BB5
:101600002023012E7CD1C6067AD5D60678D5086867
:101610004868009048694FF00206400640D5E16BEB
:10162000086840680004000CE8D0A28D8242E5D929
:10163000E085886920282DD020680C3050E8001FF4
:1016400021F4807140E80012002AF5D1206814309E
:1016500050E8001F21F0010140E80012002AF5D1F6
:101660002068143050E8001F21F0400140E80012CB
:10167000002AF5D184F84230256320680C3050E808
:10168000001F21F0100140E80012002AF5D1E06BA4
:10169000FEF754FE6663A08DE18D401A81B22AE008
:1016A000A08DE18D401A81B2E08D0028A6D00029DE
:1016B000A4D022680C3252E8000F20F4907042E867
:1016C0000007002FF5D12068143050E8002F22F0D9
:1016D000010240E80027002FF5D184F8423025634D
:1016E00020680C3050E8002F22F0100240E8002360
:1016F000002BF5D166632046FFF708FFF8BDFFE732
:1017000005062BD5150629D594F841002128F5D1D9
:10171000A068B0F5805F01D12069B0B1206A411C9A
:101720002162216800784860E08C401E0004000CB3
:10173000E084E3D12068C16821F08001C1602068A5
:10174000C16841F04001C160D8E7206A0088C0F359
:1017500008004860206A801C2062E5E74006CDD57D
:101760005006CBD5CA68204622F04002CA6084F8F1
:10177000413000F000F9C1E79520000870B5040081
:1017800004D094F84100002510B106E0012070BD9E
:1017900084F84050204600F023F8242084F84100CB
:1017A0002068C16821F40051C160204600F002FDAC
:1017B0002068016921F4904101612068416921F0AC
:1017C0002A0141612068C16841F40051C16065642B
:1017D000202084F8410084F842006563002070BD39
:1017E00030B585B0002400940194029403940068FD
:1017F000184988422CD11848816941F4804181619F
:10180000816901F480410491816941F004018161A1
:101810008069124D00F0040004904FF400700090B5
:10182000022001900320039069462846FEF754FEEB
:101830002815CDE90004694628460294FEF74CFEBF
:1018400000220A212520FFF71DFB2520FFF70CFBB6
:1018500005B030BD003801400010024000080140D2
:1018600090F84230202B01D00220704721B11AB1EC
:101870000023036300F0FABC0120704710B5006834
:101880001349884223D113480078303808281CD2E5
:10189000DFE800F01B040F11131517195FF00100AA
:1018A00000F098FABDE8104001220A490A48FFF703
:1018B000D7BF0220F4E70320F2E70420F0E7052079
:1018C000EEE70620ECE70720EAE70020E8E710BD96
:1018D0000038014008010020C00000202DE9F84335
:1018E000044690F841001F4616460D46202802D0B7
:1018F0000220BDE8F8837DB176B10020606421202C
:1019000084F84100FEF7EAFEA6848046E684A068DB
:10191000B0F5805F02D003E00120EAE7206910B152
:101920002E4600250EE000260CE08021204600F027
:10193000B8FCA0B9AEB116F8010B21684860E08C84
:10194000401EE084E08C43464FF0000200970028E0
:10195000EBD14FF04001204600F0A3FC30B1032052
:10196000C7E735F8020BC0F30800E6E7202084F84B
:1019700041000020BDE7704701A000F0E5FCFEE754
:10198000486172644661756C745F48616E646C6531
:10199000720D0A0001684A69D24352050FD46FF4F0
:1019A00080624A61002140F8301F20224273817317
:1019B000026942F0040202610173012070470020B5
:1019C000704700002DE9F84F0446006889460B9DDA
:1019D00001689846174641F48061016020680168FB
:1019E00041F48071016000954FF0011B00225946BF
:1019F00020460A9B00F0E4F84FF4007A40B12068DA
:101A00000068C00501D5C4F840A00320BDE8F88FE8
:101A1000216809F0FE0008612B46284920460A9AF1
:101A200000F016F9F0BB20684169806900902A46F1
:101A300020460A9900F0A2F940B1206C04283AD15E
:101A40002068016841F40071016034E0FEB2B8F131
:101A5000010F09D02168380A08612A4620460A99F0
:101A600000F08CF90028E8D1206806612A4620465B
:101A70000A9900F083F90028DFD12068016841F459
:101A80008071016000950022594620460A9B00F0B3
:101A900097F80028B3D1216809F0FF0040F0010059
:101AA000086100E007E02B46044920460A9A00F04E
:101AB000CFF80028AAD00120A8E70000020001000A
:101AC0002DE9F843044600680D46DDE908970168F2
:101AD0009846164641F4807101604B4600224FF053
:101AE00001112046009700F06BF848B120680068AB
:101AF000C00502D54FF4007020640320BDE8F883D0
:101B0000216805F0FE0008613B464A46154920461B
:101B100000F09EF888B920684169806900903A46D3
:101B20004946204600F02AF948B1206C042804D127
:101B30002068016841F4007101600120DEE7F5B220
:101B4000B8F1010F09D02168300A08613A464946C8
:101B5000204600F013F90028E7D120680561002035
:101B6000CCE700000200010070B516460D460446A1
:101B70001EE02046FFF70EFF08B1012070BD681C73
:101B800016D0FEF7ABFD801BA84200D885B92068AF
:101B90004069C04340070BD5002044F8300F202196
:101BA0006173A073216941F0200121612073E4E792
:101BB00020684069C0434007DBD4002070BD0000AE
:101BC0002DE9F047984617460D460446C1F30746EF
:101BD000DDF820902AE000BFB8F1FF3F26D0FEF7E5
:101BE0007DFDA0EB0901414502D8B8F1000F1DD1E0
:101BF0002068012E16D0806925EA00000004000C40
:101C000012D00020B84211D1002044F8300F20211A
:101C10006173A073216941F02001216120730120CB
:101C2000BDE8F0874069E7E70120EBE72068012E77
:101C30000AD0806925EA00000004000C06D00020CC
:101C4000B842C9D00020EBE74069F3E70120F7E78D
:101C50002DE9F047984616460D4604464FF0000918
:101C60004FF0200AC1F3074723E020684069C043D2
:101C7000400515D42068016841F4007101602168B5
:101C80006FF480604861C4F8309084F83DA084F817
:101C90003E90216C41F00401216484F83C9021E0E5
:101CA000701C06D0FEF71AFDA0EB0800B04203D866
:101CB00016B1012F1FD021E02068012F15D08069B7
:101CC00025EA00000004000C18D000BF44F8309F43
:101CD00084F80DA084F80E90216941F02001216163
:101CE00084F80C900120BDE8F087406925EA0000E7
:101CF0000004000CEAD12068406901E02068806996
:101D000025EA00000004000CAFD1ECE72DE9F0411A
:101D1000002590460E460446202728E04069C0432F
:101D2000C0060CD454F8301B6FF01000486144F822
:101D300010596777A577206A2062257714E0FEF7AF
:101D4000CDFCA0EB0800B04200D886B920684069FD
:101D5000C04340060BD544F8305F6773A573206914
:101D600040F02000206125730120BDE8F08120684B
:101D70004169C9434906D1D40020F6E770B516463B
:101D80000D4604461EE02046FFF704FE08B1012080
:101D900070BD681C16D0FEF7A1FC801BA84200D8BD
:101DA00085B920684069C04300060BD5002044F87F
:101DB000300F20216173A073216941F0200121615E
:101DC0002073E4E720684069C0430006DBD40020AC
:101DD00070BD000010B51E4C082837D2DFE800F0B7
:101DE00036041012191B282F002220212046FEF74E
:101DF0006FFC012201212046FEF76AFC012211E05E
:101E0000002200E0012220212046FEF761FC002292
:101E1000F0E7012214E001220BE001212046FEF749
:101E200057FC00222046BDE810400221FEF750BCBE
:101E3000002220212046FEF74BFC0122EDE7002284
:101E400020212046FEF744FC0022E6E70122CCE7F1
:101E5000000C0140F0B585B000242748009401949F
:101E600002940394816941F010018161816901F05C
:101E700010010491816941F004018161816901F0DF
:101E800004010491816941F00801816180691B4E60
:101E900000F008000122049011463046FEF718FCBD
:101EA000174F012223213846FEF712FC7014CDE9AA
:101EB0000004694630460294FEF70EFB0320CDE98C
:101EC000024001250095694601953046FEF704FB66
:101ED000CDE9005469460B480294FEF7FDFA232031
:101EE000CDE900050220CDE9024069463846FEF7FB
:101EF000F3FA05B0F0BD00000010024000100140F0
:101F0000000C0140000801400D4810B50B4901606C
:101F10000C4941600021A422C0E902124FF4804222
:101F2000C0E904218161C1610162FEF7DDFB002887
:101F300003D0BDE81040FEF7FFB910BD00540040CB
:101F400014000020801A0600104810B50E490160E8
:101F50004FF48271416000218160C1604FF40072D2
:101F60000161C0E905121022C0E9072141628162C6
:101F70000A21C162FFF724FA002803D0BDE810400F
:101F8000FEF7DAB910BD0000003001406800002003
:101F90000C4810B50A4901604FF4E131416000215D
:101FA00081600C22C160C0E904128161C161FFF748
:101FB000E5FB002803D0BDE81040FEF7BDB910BD19
:101FC00000380140C000002001A000F0BDF9FEE78C
:101FD0004D656D4D616E6167655F48616E646C65EE
:101FE000720D0A0001A000F0AFF9FEE74E4D495F07
:101FF00048616E646C65720D0A00000001A000F07B
:10200000A3B9000050656E6453565F48616E646CFE
:1020100065720D0A0000000001A000F095B90000F3
:102020005356435F48616E646C65720D0A00000090
:10203000FEF7C2BE30B58FB028216846FEF7ADF876
:1020400014210AA8FEF7A9F801210804CDE900101F
:102050000024029402250491CDE907504FF4E010CA
:1020600009906846FFF71CF808B172B6FEE70F202A
:10207000CDE90A054FF48060CDE90C4002210AA8A1
:102080000E94FEF731FF002801D072B6FEE70FB0C4
:1020900030BD704710B5406A0021C185C184FFF78B
:1020A00036FA10BD01680C3151E8002F22F490720D
:1020B00041E80023002BF5D10168143151E8002FCD
:1020C00022F0010241E80023002BF5D1016B012928
:1020D00009D101680C3151E8002F22F0100241E8CB
:1020E0000023002BF5D1202180F84210002101634C
:1020F000704708B590F84210222901D0022008BD8F
:1021000082684FF480539A4201D1016921B1816AFA
:102110009A421BD04AB10AE00268816A5268C2F34F
:1021200008020A80816A891C08E0026972B10268AB
:10213000526802F07F020A70816A491C8162C18D77
:10214000491E0904090CC18503D01BE002685268CE
:10215000F1E70168CA6822F02002CA600168CA6813
:1021600022F48072CA6001684A6922F001024A6161
:10217000202180F8421000214163026B012A03D024
:10218000FFF77CFB002008BD016301680C3151E8BA
:10219000002F22F0100241E80023002BF5D1016846
:1021A0000A68D20602D50A6849680091818DFFF756
:1021B000ADF9E7E770B5044600680169E26821F40B
:1021C0004051114301612169A068084361690843D6
:1021D0002168CA6841F20C639A430243CA602068CE
:1021E0004169A26921F44071114341611E4920688F
:1021F000884202D1FEF71EFF01E0FEF70BFF00EB65
:10220000C00101EB0012606864218000B2FBF0F3B2
:10221000B3FBF1F36FF018067343B2FBF0F5B2FBBA
:10222000F0F605EB8305322303EB0515B5FBF1F55D
:10223000B6FBF1F605F0F00505EB0615B2FBF0F67E
:10224000B2FBF0F0B0FBF1F06FF01802504306EB78
:10225000800003EB0010B0FBF1F0216800F00F00EC
:102260002844886070BD000000380140816282858A
:10227000C28500214164222180F84210016921B108
:102280000168CA6842F48072CA6001684A6942F013
:1022900001024A610068C16841F02001C16000206C
:1022A00070472DE9F041984617460E460446069DB4
:1022B00027E0681C25D02DB1FEF710FAA0EB08002E
:1022C000A8421ED920680C3050E8001F21F4D071BC
:1022D00040E80012002AF5D12068143050E8001FB1
:1022E00021F0010140E80012002AF5D1202084F8F5
:1022F000410084F84200002084F840000320BDE83B
:10230000F0812068006836EA000004D00020B8425E
:10231000CFD00020F3E70120F9E700000148FFF7E4
:10232000F7B80000C000002001A000F00DF8FEE7A3
:1023300055736167654661756C745F48616E646C66
:1023400065720D0A000000000FB4054B10B503A91B
:10235000044A029800F028F810BC5DF814FB000055
:1023600069260008100000200907090E002804DB78
:1023700000F1E02080F80014704700F00F0000F139
:10238000E02080F8141D704702E008C8121F08C141
:10239000002AFAD170477047002001E001C1121FE6
:1023A000002AFBD1704700002DE9FF4F8DB09B46FE
:1023B0000F460446002606E025280BD05A460F9902
:1023C0009047641C761C20780028F5D111B0304667
:1023D000BDE8F08F0025A8460122984900E005439A
:1023E00014F8013F203B02FA03F00842F7D12078AD
:1023F0002E2817D114F8010F45F004052A280ED015
:102400006FF02F022078A0F1300109290AD808EBDB
:10241000880102EB410100EB0108641CF2E757F868
:10242000048B641C20786C280DD004DC4C2812D05E
:102430006A2811D104E074280DD07A280CD10AE062
:1024400045F4001507E0617845F48015814202D11A
:10245000641C05F58015641C2078692844D008DCCC
:102460000028B3D0582867D063280FD0642808D13B
:102470003AE0702865D0732812D075285AD0782891
:102480005AD05A460F999047761CD5E017F8040B9E
:102490008DF8000000208DF80100E946012003E0DE
:1024A00057F8049B4FF0FF3069074FF0000501D447
:1024B0000AE06D1C45450DDA8542FADB19F8051076
:1024C0000029F6D106E06D1C8542FCDB19F80510E9
:1024D0000029F8D12E4404E019F8010B5A460F994F
:1024E00090476D1EF8D2A7E00A200021CDE908012F
:1024F000C5F3025002280CD001CFC117021E71F1A2
:1025000000020CDA0023D0EB030063EB01012D2263
:1025100008E0FF1D27F00707F7E80201EEE72A05AC
:1025200004D52B228DF8282001223CE0EA073AD07E
:102530002022F7E70A2000E010200021CDE9080161
:1025400007E01020002145F00405CDE908014FF017
:102550000808C5F30250022810D001CF00214FF027
:10256000000A2A0720D52278702A0DD0DDE908C399
:102570008CF0100C5CEA030C0CD015E0FF1D27F06A
:102580000707F7E80201EAE740228DF828204FF01C
:10259000010A0CE050EA010306D030238DF8283000
:1025A0008DF82920022292462278582A04D024A2AB
:1025B0000DF120090B9209E026A2F9E7DDE90823D5
:1025C000FDF7F6FD0B9B9B5C09F8013D50EA01020B
:1025D000F4D1ADEB090020300890680701D44FF02A
:1025E00001080899884503DD0898A8EB000000E081
:1025F00000208046002506E00AA85A46405D0F9953
:1026000090476D1C761C5545F6DB04E030205A4699
:102610000F999047761CB8F10001A8F10108F5DC8C
:1026200005E019F8010B5A460F999047761C089956
:10263000481E08900029F4DC641CC4E60928010047
:102640003031323334353637383961626364656628
:1026500000000000303132333435363738394142EA
:10266000434445460000000013B54FF6FF730122B6
:1026700069460248FFF732F900981CBDC0000020EF
:102680000024FEF7A1FBFFF7D5FCFFF7E3FBFFF704
:102690007FFCFFF739FCFFF757FC0122154916486C
:1026A000FFF7DEF8154D592631462E5514A0FFF7D9
:1026B0004BFE641CA4B2FF2CF6D94FF48074224662
:1026C0000E490020FDF7E4FD10A0FFF73DFE224675
:1026D00010490020FDF722FE0E4D002408A0295DC0
:1026E000FFF732FE641CA4B2FF2CF7D90A20FDF7D5
:1026F000E1FEFBE708010020C000002012020020DC
:102700003078252E32582020000000000D0A0D0AD6
:1027100000000000120100203EB54FF496758DE8D0
:10272000260002460123A0210648FEF77FFA044650
:102730002A462B46A0210348FEF79AF80028F7D135
:1027400020463EBD140000200102020304050607D6
:1027500008090A0B0C0D0E0F1010000000000000FD
:10276000000001020304060708090000000001023E
:10277000030400009427000800000020140000005B
:1027800088230008A8270008140000200407000080
:102790009823000801000000100000000000000065
:0827A0000024F4000000000019
:0400000508000131BD
:00000001FF
